:020000040800F2
:1000000008090020C9000008EF0000086707000881
:1000100000000000000000000000000000000000E0
:10002000000000000000000000000000F3000008D5
:100030000000000000000000F5000008690800084A
:10004000F9000008F9000008F9000008F9000008AC
:10005000F9000008F9000008F9000008F90000089C
:1000600000000000F9000008F9000008F90000088D
:10007000F9000008F9000008F9000008F90000087C
:10008000F90000080000000000000000F90000086E
:1000900000000000F9000008F9000008F90000085D
:1000A00000000000F900000800000000F90000084E
:1000B0000448854600F0BCF900F048F800480047C5
:1000C00005210008080900200C4880F308880C4826
:1000D0000168090E0B4A914205D10B480B4901609A
:1000E0000B480C4901600C4880470C480047FEE76C
:1000F000FEE7FEE7FEE7FEE7FEE700000809002056
:10010000040000001F000000181002400100000061
:1001100000000140000000006D080008B100000868
:1001200030B50B46014600202022012409E00D468F
:10013000D5409D4205D31D469540491B2546954017
:1001400040191546521E002DF1DC30BD70B5054C2E
:10015000054D03E0206800198047241DAC42F9D109
:1001600070BD0000D0320008D4320008F8B5024655
:100170004A40D40F42004B0052085B089A4202D218
:100180000246084611464A0023D0C30D4A00DDB29C
:10019000120EAD1A202D35DA49020126490AF6055C
:1001A0008A19002C00D0524220214F1B1146B94021
:1001B0002A411018C20D9A4221D0002C17D0012DCF
:1001C00008DCDA05801AD20F8019D207DBB200F002
:1001D000F5F8F8BDDA05801A012340001B06C018A7
:1001E00080185A428018CA0F1043490007E0490896
:1001F000C2071143DA05801A80194008801800F000
:10020000D5F8F8BD61000122511A001BF7E7012261
:10021000D2075140AAE70122D2075040A6E7024682
:1002200070B54A40D30FDB0740002DD04A002AD0DA
:10023000010E140E000212020919400A520A841813
:10024000E50104465443000A120A2E045043A4193F
:100250004219200CC543AA18120C0125AD03521CEB
:10026000521912047F39240400D0521C104301D4C7
:100270004000491EC2B20C06C0092018401C4008AC
:10028000802A02D003E0002070BD40084000002911
:1002900000DA0020184370BD70B502464A40D50F01
:1002A00040004A00ED0740085208002814D0002AF8
:1002B00012D0C40DD30D41020120C0055202490ADB
:1002C000520AE41A091812187D34914201D3641CB1
:1002D00000E04900002C01DA002070BD00239142AB
:1002E00001D3891A0343400849000028F7D10029A7
:1002F0000AD0914202D10121C90705E0914201D201
:10030000012101E00121C943E005C018401900F0B6
:100310004DF870BD420005D04200120E52428A4292
:1003200001DB00207047C90508187047C217C10FCC
:10033000504010B54018CA079623002100F03EF83F
:1003400010BD10B500229623114600F037F810BDFD
:10035000C20F410040020123400ADB05D207090E0B
:10036000C0187F2901DA00207047962903DC962304
:10037000591AC84001E096398840002AF4D040421A
:10038000704700000122D207002800DB101A002964
:1003900000DB511A814270470122D207002800DB9E
:1003A000101A002900DB511A88427047002904DA2C
:1003B000401C490001D140084000704770B400243F
:1003C000050C05D11024000402D1002921D01124EC
:1003D000050E01D100020834050F01D10001241DD2
:1003E000850F01D18000A41C002801DB4000641CA3
:1003F000002908D020252E1B0D46F540A14000D035
:1004000001212943084301061B1B000ADB1D02D5FD
:10041000002070BC7047DB05181880180029F8DA36
:10042000401C4900F5D170BC4008400070470000F6
:10043000064C0125064E05E0E36807CC2B430C3C37
:1004400098471034B442F7D3FFF736FEB0320008B5
:10045000D032000870B58C180578401C6B075B0F14
:1004600001D10378401C2A1106D10278401C03E018
:1004700006780E70401C491C5B1EF9D12B0705D471
:100480000023521E0DD40B70491CFAE70378401C60
:10049000CB1A921C03E01D780D70491C5B1C521E88
:1004A000F9D5A142D8D3002070BD836A0B43836283
:1004B000426170470029816801D0012200E00222D8
:1004C0001143816070470029C16802D001221143A5
:1004D00001E049084900C1607047C26802239A439D
:1004E000C260C2680A43C26070478268002101236B
:1004F000DB071A4382600F231B038268491CD20F5B
:10050000D207994201D0002AF7D18168002901DB86
:10051000006C70470020704730B5C268084B8C688B
:100520001A400B680D792343CC686D032C43234399
:100530000C69496923430B431343C36030BD00007A
:1005400003D2FFFF816804221143816070470021BC
:10055000016001718160C16001614161704700000B
:100560000122054992050028886801D0104300E067
:10057000904388607047000000270140002901680F
:1005800002D00122114301E0014A1140016070478D
:10059000FEFF000030B503680C4A0C6A13408A68FD
:1005A0004D6922430C692C4322438C692243CC6958
:1005B00022434C6A22438C6A22431A430260CA686F
:1005C00042600A6882604968C16030BD0F80FFFFE9
:1005D000F0B50B2706463F04384600F067F80428BC
:1005E0000FD1084C206902252843206166612069EB
:1005F000402108432061384600F058F82169A9439A
:100600002161F0BD0020024008490420CA68D207D9
:1006100001D001207047CA68D20601D50220704778
:10062000C9684907FBD5032070470000002002403D
:100630000248016980221143016170470020024095
:10064000F8B5064600200B273F0400900D463846BB
:1006500000F02CF8042815D10B4C20690121084327
:1006600020613580384600F021F8042806D1B61CF8
:10067000290C00963180384600F018F821694908A5
:1006800049002161F8BD00000020024004480169D2
:10069000090603D5034941600349416070470000E2
:1006A0000020024023016745AB89EFCD00B503462A
:1006B000FFF7AAFF02E0FFF7A7FF5B1E012803D0A8
:1006C000002B00D1052000BD002BF4D1FAE7F0B5D6
:1006D0000022032501230C6893401C409C422AD130
:1006E0000C79012C01D0022C12D1876854002E46BF
:1006F000A640B74387604E79A6408468264386604B
:1007000084889C43848084888B7993401C438480B4
:10071000066853002C469C40A64306600E79076885
:100720009E403E430660C668A643C660CC799C40A6
:10073000C3681C43C460521C102ACBD3F0BD4B07C6
:10074000DB0E9A40C90810B589000818016A0F2409
:100750009C40A1430162016A1143016210BD018501
:10076000704781617047052000F062FF70B5FF257A
:1007700000210446AD05C943FFF7CCFD06460F49ED
:1007800060100C1A21463046FFF749FD2146FFF75D
:1007900046FD2946FFF73FFD2146FFF740FD044691
:1007A00001463046FFF73BFD2146FFF738FD29465D
:1007B000FFF731FD2146FFF732FD70BDDF59375F8E
:1007C000044A0029516901D0014300E0814351618D
:1007D0007047000000100240044A0029D16901D08E
:1007E000014300E08143D1617047000000100240E6
:1007F000044A0029916901D0014300E081439161DD
:1008000070470000001002400CB5002000900190DD
:1008100013491120086013484168416041684160F4
:1008200041687B22D2039143416041680522D20492
:100830001143416001680122120611430160016801
:100840008901FCD54168890889004160416802221C
:100850001143416041680907890F0229FAD10CBD93
:1008600000200240001002407047000010B51448FC
:1008700001680122114301604168124A1140416040
:100880000168114A114001600168012292049143FC
:10089000016041683F22120491434160C16A090925
:1008A0000901C162016BFF22543291430163416B24
:1008B00049084900416300218160FFF7A5FF10BD91
:1008C000001002400CB8FF08FFFFF6FE0029018867
:1008D00002D00122114301E049084900018070471C
:1008E00040300029818803D00122D203114301E066
:1008F0004904490C8180704770B5028C520852003F
:100900000284048C8288038B7025AB439B080D887E
:100910009B001D4302239C438E894B882643104C29
:100920003343A04208D00F4CA04205D00E4CA04249
:1009300002D00E4CA0420DD10824A343CC891C4305
:1009400004239C438B882343094C22400C8A144384
:100950004A8A22438280058389684163038470BD8B
:10096000002C01400040014000440140004801408B
:10097000FFFC000070B5028C10239A430284048CA3
:100980008288038B1A4D2B400D782D062D0C1D43AC
:1009900020239C438B891B051E0C4B8826431B057B
:1009A0001B0C144C3343A04202D0134EB04219D159
:1009B000124E32400E8AB604360C3243A04211D198
:1009C0008024A343CC892405240C1C4340239C434E
:1009D0008B881B051B0C2343094C22404C8AA40422
:1009E000240C22438280058389688163038470BD5F
:1009F000FF8C0000002C014000400140FFFB000084
:100A0000FFF7000030B5028C124B1A400284058CAF
:100A10008288838B104C23400C782406240C1C43C2
:100A20000E4B1D400B7B1B071B0C2B438D782D079A
:100A30002D0C1D430A4B984205D10A4B13400A8ADC
:100A40009205120C1A4382808483896801640584AC
:100A500030BD0000FFEF0000FF8C0000FFDF000052
:100A6000002C0140FFBF000010B50288144B9842D3
:100A700006D00124A407A04202D0124CA04203D108
:100A80007024A2434C8822430F4CA04203D00F4C49
:100A900022400C89224302804A68C2620A88028589
:100AA000984208D00A4A904205D00A4A904202D0A1
:100AB000094A904201D1897A01860121818210BDC3
:100AC000002C01400004004000100040FFFC00002A
:100AD00000400140004401400048014070B50D480D
:100AE0000B4900680546FFF79AFB0B49FFF73EFBF1
:100AF00004460A492846FFF792FB2146FFF7CCFB44
:100B00007F21C905FFF787FB0549086070BD00001C
:100B100000004040900100200AD7233C0000C04064
:100B20000802002000210160704700210160704729
:100B3000FFB581B01C4617460E0007D0019D02E0AC
:100B40002846B047ED192046641EF9D2019805B039
:100B5000F0BD02E008C8121F08C1002AFAD1704790
:100B60007047002001E001C1121F002AFBD170472D
:100B700010B50323042207490748FFF7D9FF0748A8
:100B80000021016004480323082205490C30FFF7C7
:100B9000CFFF10BD250B0008E40400200C0200204C
:100BA0002B0B000870B5174D064668680024002816
:100BB00001D101F0D1FF2868002801D102F04AF8E4
:100BC0000722012301F0A0FF00F01EF8002803D047
:100BD000184690402043C4B201F0B2FF521EF1D536
:100BE000002E02D001F0B8FF01E001F0C7FF01F0D4
:100BF0008BFF01F0A5FF6868002801D001F0BEFF5F
:100C0000204670BD9C0000200920C006008A0121FA
:100C1000890208407047000010B505484068002868
:100C200001D101F099FF01F06FFF01F0A7FF10BDA6
:100C30009C00002070B5104E0546B068012801D117
:100C400001F07EFF072428462041C00702D001F0B2
:100C500083FF01E001F092FF01F062FF641EF2D514
:100C60007068002801D101F077FF01F04DFF01F01D
:100C700067FF384670BD00009C00002010B5074A91
:100C80009068002801D101F03FFF5068012803D18E
:100C9000FFF7BAFF01F072FF10BD00009C000020BA
:100CA00010B5084C6068012804D1A068002806D15E
:100CB00001F064FFA068002801D101F025FF01F0D8
:100CC0004BFF10BD9C000020F8B5154E45200006D6
:100CD00037460025183FB06002F006F80024A00057
:100CE000395880190F4A01F0AAF9641C032CF6DB6D
:100CF00000F026FFFF20F5306D1C8542ECDB45211E
:100D00000906B068FFF783FA074D0024B060A00021
:100D10008019294601F080F9641C032CF7DBF8BD2B
:100D2000A80400201F856B3F0000FA4370B592B005
:100D3000202503206946069508770024CC770920F2
:100D400006A9C006FFF7C3FC01214802FFF750FDCA
:100D500001210846FFF734FD2A4806902A480790EB
:100D60000220099080200B9040000C900894800095
:100D70000E950D900A94C000244D0F9006A9109472
:100D80002846FFF707FC1F4E0221403E3046FFF782
:100D9000A4FB01213046FFF796FB6846FFF7D7FB1F
:100DA000012069460094087104200590029404947F
:100DB0003046FFF7B1FB0121072249043046FFF717
:100DC00074FB072220213046FFF76FFB0120FFF75D
:100DD000C7FB3046FFF789FB01213046FFF76AFB6E
:100DE0003046FFF7AFFB01212846FFF7C7FB084855
:100DF0000088FFF7A6FA0749FFF711FA0249486091
:100E000012B070BD40240140A8010020080002403B
:100E1000BAF7FF1F62DB963F10B50B49002803D0DD
:100E2000012808D0002010BD0888FFF78AFA07497A
:100E3000FFF7F5F910BD4888FFF783FA014602482D
:100E40004068FFF729FA10BDA80100203FC8B23A58
:100E5000F8B5840013481349183007590968384613
:100E6000FFF7DDF90F4D06461035284610300159C1
:100E70003846FFF7CCF9294608390968FFF7CFF95A
:100E800009490968FFF7CBF93146FFF76FF9285197
:100E90002846103007516019044901F0BDF828595F
:100EA000F8BD000014000020680000200000B443DA
:100EB00070B5184CE06B002804D00025012809D03B
:100EC000E56370BD0120A06201F06AFEE06B401C8A
:100ED000E06370BD172002F084F9C00608D58F21A9
:100EE000002002F0A3F9E563A56201F053FB70BD99
:100EF00000F026FEE16C401A07498842F7D9E1204C
:100F000002F04EF98F21002002F090F9E563A5620E
:100F100070BD0000B40000201027000070B500254F
:100F200006462C46A00030580146FFF778F92946BE
:100F3000FFF71CF9641CE4B20546032CF2D3FFF75B
:100F400015FC01467F20C005FFF7A6F970BD000023
:100F5000F8B5164F0C227968134E5143144A8A187B
:100F600039688C001159002802D0124E491C00E04B
:100F7000491E1151BD6831462859FFF750F92851D3
:100F80003C68002C04D131466868FFF748F9686076
:100F900078680C21484306494018A10040580028B1
:100FA00000DA4042F8BD00002EBA683F5000002031
:100FB00014020020CDCC8C3F30B5002207239C1AB0
:100FC0006418203C855CE47FA54201D0002030BD40
:100FD000521C072AF3DB012030BD0000FEB50720BC
:100FE00002F0FFF80007400F0026072801D002207A
:100FF00000E0304601246D4D002869D0E8680028E3
:101000001DD000F09DFD07460F21694802F0D3F87E
:1010100000F06AFA002853D0686C401C6864686865
:10102000002801D0FFF744FF2E636E6328692F6507
:101030006F65EE62E865A86A00283FD040E00F21A6
:101040005B4802F0B8F85A4B1868A42801D0A328CE
:101050003ED1A32802D157486C6068625348197E7C
:1010600040300170197F4170198C8170998CC1706A
:1010700051494E4F8868C96800900120019160373E
:101080008100595C6A4611543A18203A401CD177C5
:101090000628F5DB0621684602F060F83020694634
:1010A00008700621684602F059F840482969403026
:1010B000415C252002F0BAF8EC6009E001F06AFA20
:1010C000A869401CA861092802DD0A206C61A8619A
:1010D000A86A002801D0FFF7EBFE00F031FD0746BB
:1010E000286D391A686A82007D20C000101881427C
:1010F0000BD9E868002808D02F65686B002801D15B
:10110000E86D286101F046FA6C63A96A686B0843D0
:1011100019D1286B0090052815D2E868002812D054
:10112000286D7D21381AC90088420CD9696AFEF7FA
:10113000F7FF01460098401C814204D301F02AFACF
:10114000286B401C2863686D391A1C48814206D9F7
:101150001B48EC62066046608660C66002E0E86A92
:10116000002803D0286A002802D011E02C620FE08A
:10117000E8691449381A88420AD90C48EE600621F9
:1011800071302C6201F0EAFF0021052002F04EF8D8
:1011900000F0D6FCA96D411A0848814205D9686C57
:1011A0006E64A86400F0CCFCA865FEBDB40000200D
:1011B000BC020020881300006832000840420F0083
:1011C00054040020C0E1E400F0B57F2085B0C005E4
:1011D0000090A9488078002802D13F2000060090A6
:1011E000A64DA74E0024A700F0590099FFF717F865
:1011F000641CE851032CF6DB01F0C2FA9E48A14CB6
:101200000078002803D0A0480068002851D09F49EA
:101210002868FFF704F82146FFF701F89C4F9B4927
:1012200038606868FEF7FBFF2146FEF7F8FF78603C
:101230009849A868FEF7F3FF2146FEF7F0FF002467
:10124000B8609548A50041597859FEF7E0FF8B49F1
:10125000641C0C394851032CF3DB01F079FB0020AE
:1012600001F0B8F9012001F0B5F9022001F0B2F95E
:1012700081488A4B82798A488A490125002A56D0BA
:10128000894AF468944202DD0A68002A57D01A6835
:10129000012A54D005600D60844F0024FC60026870
:1012A0008348002A50D08349F2688A424FDA0460AA
:1012B0004EE00021714801F09DFE7649A868FEF7D6
:1012C000AEFF2146FEF7ABFF05467B4C2946606822
:1012D000FEF7A5FF009001212068C9074840294674
:1012E000FEF79DFF01902946A068FEF798FF6A4F20
:1012F000002502907148AC000159714801512846FF
:10130000FFF7A6FD69460959FEF730FF3959FEF788
:101310007EFF5A496D1C0C390851012DEADDB96870
:101320000298FEF774FF55490C39886095E7002252
:10133000644C02602468012CAED11A60ACE7002234
:101340000260614A1560A7E704600C6000E0056078
:101350005549F068884201DA002605E0FEF757FF9C
:101360005A49FEF75CFF064659480068002802D13A
:101370005848864216DA7868002807D000F0E0FB6B
:101380007968401A5449884200D97C600026F0B23E
:10139000002101F07FFA761C032EF8DD3D603C61F0
:1013A00005B0F0BD414C0020206000F0C9FB60603A
:1013B0004A480068002801D04948C668494C304670
:1013C00027683946FEF723FF049065682946FEF733
:1013D0001EFFA4682146FEF7C9FE03903946304639
:1013E000FEF7C4FE06462946FEF711FF2146FEF72A
:1013F0000EFF019029460498FEF7B8FE2146FEF73D
:1014000006FF029030462946FEF7B0FE2146FEF761
:10141000ADFE00246E460090A5007059214601F0F3
:1014200057F8641C7051032CF6DD00201F4F044652
:101430003861A500705901F05DF80146E0B201F095
:1014400029FA70590121C907884202D90020705138
:1014500004E07F21C905884200DD71517159386966
:10146000FEF784FE641C3861032CE2DD0121C943D0
:10147000FEF750FF386193E7840300202403002027
:101480005404002035FA8E3CE4010020000057444B
:10149000680200200000FA439C040020980100200C
:1014A000A0010020A4010020CDCCCC3D34010020BF
:1014B0009C010020CDCC4C3DD001002084040020B4
:1014C0002C000020C800002074010020E4388E3F6A
:1014D000E00000206F12833A40420F00EC01002030
:1014E000D40400205C020020F8B5404D2868A528EF
:1014F00079D1002108468200AA58401C51180E28B4
:10150000F9DBC8B2A96B88426DD13848103001F0C0
:1015100051F8374E30603548183001F04BF87060A4
:101520003248283001F046F8B060288C696A80079C
:10153000800D4018FEF7FAFE2E49FEF770FEF060AF
:10154000297B2D4C0806C00FA071A868C206D20FD7
:10155000E2718206D20F22728A06D20F4907E27226
:10156000C90FA1720107C90F21706A68FA2A17D042
:10157000002262708207D20FC007A270C00FE07015
:10158000306800290ED01D4D294601F0B3F93060B6
:101590002946706801F0AEF970602946B0680DE028
:1015A0000122E6E7164D294601F0A4F930602946EC
:1015B000706801F09FF970601249B06801F09AF903
:1015C000B0600020104B114D074601261F542A5CC5
:1015D000215C8A4200D01E542954401C0E28F5DBA1
:1015E0000120F8BDFFE70020FBE70000BC0200205F
:1015F00054040020F7FF7F3A84030020CDCC0C3F39
:10160000CDCC4C3F9A99193F74040020640400200B
:1016100010B50020FFF79CFC10BD08B581004018F4
:101620000090411E009101D30846FAE708BD000072
:1016300006460024E0B2002101F02CF9641C032CC2
:10164000F8DD0B4DAF0000240CE0FF2000F0D2FCD1
:101650002846FFF7E2FFFF2000F0BAFC2846FFF71C
:10166000DCFF641CB442F0DB3846FFF7D6FFEAE744
:10167000400D030010B50349FEF778FD00F004F8B3
:1016800010BD0000DB0FC93F70B50446134E144D6A
:1016900003E03146FEF76AFD0446AC42F9D8114D2D
:1016A000AC4204DD3146FEF7B2FD0446F8E7012006
:1016B000C0070D490D4D8442204605D9FEF7AFFD08
:1016C0002946FEF753FD04E0FEF7A9FD2946FEF783
:1016D000A2FD2146FEF7A3FD70BD0000DB0FC9404F
:1016E000DB0F49C0DB0F49407B81CF3E83F9A23F2E
:1016F000FEB500273D460024681CFEF717FE01904A
:101700000E49A8000E58601CFEF710FE0090A100C4
:1017100071580198FEF783FD0099FEF780FD084996
:10172000FEF77DFD3946FEF721FD641C0746032CBC
:10173000E9DB6D1C032DDEDBFEBD00009000002008
:101740008D976E3F10B5FFF7D3FF0149086010BDBC
:101750003C000020F8B50020012400F08FF81A4D5D
:10176000A84230D1FF2000F089F8A8422BD12046B2
:10177000022500F08BF8154948600968FEF702FE63
:1017800011D100260024B70028466D1C00F07EF819
:101790000F49A200C959641C8850032CF4DB761C45
:1017A000032EEFDB00E00B2528466D1C00F06EF8E1
:1017B000084C206028466D1C00F068F860602846E0
:1017C00000F064F8A060F8BD0100AA123C000020FF
:1017D00090000020A8040020F8B500F05BF800F0AD
:1017E0003BF800200124184901F0CAFC17492046A3
:1017F0000225096800F052F800260024B7001448BA
:10180000A100C059415828466D1C00F047F8641CDF
:10181000032CF4DB761C032EEFDB0E4C28466D1CEC
:10182000216800F03BF86E1C2846616800F036F82D
:101830003046A16800F032F80349FF2001F0A0FC17
:1018400000F018F8F8BD00000100AA123C000020CA
:1018500090000020A804002010B50548FEF7B8FE4F
:10186000042803D0FEF7E4FE012010BD002010BDC7
:10187000007C000810B5FEF7DBFE10BD02498000B9
:101880004018006870470000007C000800B5FFF7B2
:10189000F5FF00BD10B5FEF7F9FE10BD10B501F063
:1018A0006FFC10BD30B52F4C2178814258D00621F5
:1018B0006218203AD27F6254491E0129F8DA20705A
:1018C00029492848FFF778FB7F25002802D065705A
:1018D000032030BD24492348C91DFFF76DFB0028B4
:1018E00002D06570042030BD1F491E480E31FFF73D
:1018F00063FB002802D06570012030BD1A491948E9
:101900001531FFF759FB002802D06570022030BD69
:10191000154914481C31FFF74FFB002802D06570B1
:10192000052030BD10490F482331FFF745FB002843
:1019300002D06570062030BD0B490A482A31FFF7F6
:101940003BFB002802D06570072030BD06490548E2
:101950003131FFF731FB002802D06570082030BD1F
:10196000002030BD5801002076320008F8B500F0A4
:1019700065F804004FD02B4F0125012C1ED12A48B9
:10198000016800292DD000213D600160FFF724FF90
:10199000FFF7E0FE002002460C2603467343234E69
:1019A00000219B198E00491C9A510329FADB401C27
:1019B0000328F1DB00F0C4F81D4908601D481E4EE5
:1019C000042C13D0032C14D0072C01DB164805601F
:1019D000052C12D0062C13D0072C1DD0082C1ED09D
:1019E00011E000F0E9F8FFF76FF9CFE705713D600E
:1019F00009E000213D60017105E000F0AFFD01E06C
:101A000000F09EFD306008480068002803D0306870
:101A1000002800D13D60F8BD00F074FAF2E7FFF74E
:101A2000F7FDEFE774010020E00100201402002020
:101A300094010020840300207801002070B537480D
:101A4000374C0068002864D0364B37481A6851007C
:101A5000490881420BDA9D686D006D08854206DAFF
:101A60005D686D006D08854201DA00202FE02F4D82
:101A7000AA4202D89E68AE4206D95E687600760811
:101A8000864201DA012022E0294EB24202DC9A6845
:101A9000B24206DD5A6852005208824201DA022040
:101AA00015E05A68AA4208D9814206DA9D686D009D
:101AB0006D08854201DA032009E0B24208DD814267
:101AC00006DA996849004908814201DA0420206059
:101AD00000F036F806CC083C914200D0E060E268A5
:101AE000801A144A90420FD9002904D1124A904218
:101AF00001D90C2005E0114A904204D97F2903D076
:101B0000FF20A06000E0A1606160A068FFF7CAFE4E
:101B100070BD7F20A0606060002070BD3401002097
:101B20004801002054040020CDCC4C3E333333BF59
:101B30003333333FA086010060AE0A0020A10700C6
:101B40000C48436980690C494A68904201D2121AD4
:101B500001E01B1A9A184860086806231218074803
:101B60005043800C4343D21A0A608A681018886078
:101B70007047000000E000E044000020ABAA000035
:101B80001CB5232001214004FEF71AFE01206946FE
:101B9000087100208871C87103204871042009244D
:101BA000E40600902046FEF792FD08210091694668
:101BB0002046FEF78CFD1CBDF0B591B0FFF7C0FFCD
:101BC0000F9005460B900A9000208100584B0CAAFC
:101BD0005B58401C53500328F7DB8EE00A980A95A7
:101BE000281A099001D10120099006226946432054
:101BF00000F0B6F8009801990002401800B2FEF714
:101C000095FB0790029803990002401800B2FEF776
:101C10008DFB0690049805990002401800B2FEF76B
:101C200085FB444E0890307800F07EF9204642490A
:101C3000FEF776FA4148814201D9012100E00021F6
:101C40003068C207D20F914201D0401C3060394841
:101C500001780907090F00260160B4000CAF06A83F
:101C600039590059FEF798FB04D238593449FEF728
:101C70007DFA385106A839590059FEF783FB04D282
:101C800038592F49FEF7C3FA3851E0192D4900F0B1
:101C9000C3F938592C4940004008FEF767FA01465D
:101CA00006AF385940004008FEF776FB06D2FFF732
:101CB00047FF0B901F48012101600BE00998FEF7D8
:101CC00040FB224900F0D1F9024619483959201841
:101CD00000F0B5F9761C032EBFDBFFF77FF97D24FA
:101CE000E40002E00A20FFF798FCFFF729FF401B01
:101CF000A042F7D3FFF724FF05460B982C1A14488F
:101D0000844205D20F981349281A884200D265E709
:101D10000B98291A0E48814207D20020044A014636
:101D20008300401CD1500328FADB11B0F0BD000045
:101D3000B4040020DC01002024F40000127A00002A
:101D4000CDCCCC3D000048440000C8420024F448FB
:101D500080841E00C0E1E40010B501F037F810BD2A
:101D600013460A4610B50146682001F072F80120BA
:101D700010BD10B50146682001F052F810BD0A46AA
:101D800010B50146682001F08BF810BDF0B5444C49
:101D9000444D87B021682868FEF739FA28606168E9
:101DA0006868FEF734FA00240A27FF436860A6003B
:101DB000A8593946FEF7AEFA641CA851032CF6DB8D
:101DC00039480024006804AF00903848A6008059C4
:101DD0000099FEF724FA641CB851032CF5DB344E4D
:101DE000049834682146FEF71AFAB168FEF713FA30
:101DF000019001990498FEF712FA2146FEF7B6F910
:101E0000074601990598FEF70AFA7168FEF7AEF9E0
:101E1000044621460598FEF702FA0199FEF7FBF900
:101E2000B06021460698FEF7FAF93946FEF7F3F955
:101E30003060069A01461046FEF7F1F92146FEF79A
:101E400095F970601748FFF769F81A491A4A41185E
:101E5000914222D27F22D205014600241046FEF78D
:101E60001BFA0090A700E959FEF7D9F9641CE85164
:101E7000032C01DA0098F5E70B483F2109060068BA
:101E800000F005F907460024A000295880193A46B9
:101E900000F0D5F8641C032CF6DB07B0F0BD0000A1
:101EA000A804002090040020900100209C04002041
:101EB000D0010020CCCCCCC032337300F8B5002563
:101EC0000D4F00F011FF0024A6000A21B859C943A4
:101ED000FEF720FA01460948094A301800F0AFF829
:101EE000641C032CF0DB7D20C000FFF796FB6D1C0B
:101EF000642DE6DBF8BD000090040020D001002036
:101F00009A99593F10B50120FFF722F810BD0EB580
:101F100000226B461A805A8001911A819A72694692
:101F2000FEF7A2FD0EBD000070B50646FFF708FEE5
:101F3000194C21692061451A3046FEF702FA17490B
:101F4000FEF76DF906460121204689070C3000F0A6
:101F500063F82846FEF7F5F9054630466168FEF756
:101F600056F92946FEF75BF90D49FEF758F9E16885
:101F7000FEF7FCF80B49E060884205DDFF2000F029
:101F800039F87F20C00503E0FF2000F021F8002091
:101F90006060002070BD0000000000208988883D3E
:101FA0006F12833A48E1FA3E70B50D460446FFF7DA
:101FB000C7FD2146FEF7B4F86C432009814203D9DE
:101FC0000F2000F017F870BD0F2000F001F870BD71
:101FD00070B50446064DC00703D004212846FEF71D
:101FE000C0FBA00703D508212846FEF7BAFB70BD49
:101FF0000000004870B50446064DC00703D0042118
:102000002846FEF7ACFBA00703D508212846FEF7BB
:10201000A6FB70BD0000004870B504460120C00753
:102020000D4645400E462068FEF7B6F900D2266000
:1020300028462168FEF7B0F900D2256070BD70B562
:1020400005460C467F2016461146C005FEF7DFF810
:102050002146FEF7E4F8044631462868FEF7DFF82B
:102060002146FEF783F8286070BD10B5FEF714F91D
:102070007F24E4052146FEF7CEF8A04201DD20468C
:1020800010BD0121C9078842FAD9002010BD10B542
:10209000FEF7C5F87F24E4052146FEF7BCF8A04210
:1020A00001DD204610BD0121C9078842FAD9002070
:1020B00010BD000070B50C00054601D1FEF70EFD05
:1020C0000549A00044180548294602682046FFF744
:1020D000B6FF206870BD0000E40400200802002064
:1020E00070B516460A46044619461046FEF797F89C
:1020F000054631462068FEF792F82946FEF736F885
:10210000206070BD1CB57D20C000FFF786FAFFF788
:1021100037FD00F0E5FE01F00BF8CE48FFF77DFA41
:10212000FFF71AFE00F03CFB0021084600F0B2FB6E
:102130000021012000F0AEFB0021032000F0AAFBEB
:102140000021022000F0A6FB00F0A2FD00F090FDAF
:1021500000282DD0FEF7EAFDBF48012181730171EF
:10216000FFF7F0FAFFF7F6FA00F03CFCBB4D002455
:102170000020FEF751FE2968FDF7F8FF28607D205A
:10218000C000FFF74AFA641C402CF1DB0521C9436B
:102190002868FEF7BFF82860FFF70EFD00F0D6FBB9
:1021A000FFF78CFEAE480068002803D0072021E02E
:1021B00004201FE0FFF7C4FC6863FFF7C1FCA74CD5
:1021C0000546606B281AFEF7BCF82063002802DC85
:1021D0007F20C0052063A349FEF721F8A2492063B0
:1021E000884201DD062005E09D48656300681428EB
:1021F00002DD0820FFF71CFA00F076FDFEF7E4FF91
:10220000FFF7C4FD0020FEF707FE944CA168FEF71F
:1022100006F806460120FEF7FFFD0146934F2046D3
:102220003B46934A0830FFF75BFF92483B46016804
:1022300020468F4A0C30FFF753FF20468E4B8F4AC3
:1022400020302168FFF74CFF3B46894A3146204643
:10225000FFF746FF0121C943206AFEF75BF80646F7
:1022600087492068FDF7DBFF3146FDF7D0FF00907E
:10227000E4688448844256DD784F786A0646FEF763
:1022800055F88049FDF7CBFF2146FDF7C8FF0099BF
:10229000FDF76CFF7049B400703108510646F86ACA
:1022A000002808D0002030398200401C8E500C28B5
:1022B000FADB0020F8626848734910300059FDF7D6
:1022C000AEFF01906448403001593046FDF79FFF52
:1022D0000199FDF74BFF604940310E5130390851EB
:1022E0000146FDF79CFF5C4E0146A036A019674BE6
:1022F000674AFFF7F5FE786A401C78620C2812DB0B
:1023000000207862306800240190A700F0590199FC
:10231000FEF738F804D2F05901905048611C8162F0
:10232000641C0C2CF1DB4D4F3869002800D0554857
:102330005849FDF71BFF0646B86AFDF7F7FF514CF9
:102340002146FDF76CFFF968FDF769FF0099FDF77D
:102350000DFF3146FEF716F803D34F49386888421F
:1023600001DA012000E000203861B86AFDF7DEFFE5
:102370002146FDF754FFF968FDF751FF0099FDF77D
:10238000F5FE786045480068002801D0FFF7EEFAB6
:102390003869002801D0082108E041480068002879
:1023A00006D040480068002804D00F213E4818E0BD
:1023B0000C2115E02848C6787869002814D0F869FF
:1023C000002802D1FFF7BCFBF861FFF7B9FBF96900
:1023D000411A3548814202D900207861F86108210C
:1023E0001C48FFF7E1FD2BE0B86900281FD0FFF77C
:1023F000A7FB0446F869002809D1FC61002E03D030
:10240000FF20FFF7E5FD02E0FF20FFF7F3FDF8698D
:10241000211A2548814201D8F86904E0B869401EB4
:10242000B8610020F8612149201A884208D9002E9D
:1024300003D0FF20FFF7DEFD02E0FF20FFF7C8FD1D
:10244000FEF7CCFD7D24E400FFF77AFB401BA042A1
:10245000FAD3B2E6A08601008403002060010020C8
:10246000B0000020BD3786350AD7A33C00B7513BEA
:10247000492E7F3F4401002000B8AE3929EA7F3F52
:102480000000A03FCDCCCC3D42F27C3F00329D3AD3
:1024900067B17F3F00006040CDCC2C40340100206C
:1024A000C0000020E000002020A10700E09304000D
:1024B00010B506490868002807D000200860091DEB
:1024C00008710920C006FEF702F910BDB001002016
:1024D00070B506468C00044D044B6019044A314621
:1024E000FFF7FEFD285970BD340300209A99993EEC
:1024F0003333333F70B504467F20C005844201DD8D
:10250000044604E00120C007844200D900240949A0
:102510002046FDF784FE054621460846FDF77FFE6E
:102520000549FDF77CFE2946FDF720FE0349FDF72E
:102530001DFE70BD7593583F7593183E0AD7A33B97
:1025400005490868022804D001DA02200860401C0E
:1025500070470020FAE70000500000200C4948684E
:10256000002804D0012807D002280AD10BE008482F
:1025700028308860012003E005483430886002205C
:102580004860401C704702481C3088600020F7E714
:102590005000002010B50649087C401C8007800FC1
:1025A00008614031095C252000F040FE10BD0000AC
:1025B000B400002010B5416800788007800DFF3816
:1025C000FF3802380818FDF7B1FE0821C943FDF7AE
:1025D000A1FE10BDF0B505465F48AC00006885B0AF
:1025E000002805D05D4E5E493059FDF718FE305188
:1025F0005C4F022D11DA594918310859C207401CA5
:10260000D20F0851002A08D108461830005929462F
:1026100000F0D0FC51490C310851534800260159B3
:102620004E4824300059FDF7ADFE03D1385900283B
:1026300000DD01264C4801210059C907484047499F
:1026400024310959FDF79EFE05D139590120C007F3
:10265000814200D90126022D0BDA40480C30015985
:1026600024300059FDF7D3FD40004049400888421E
:1026700028DC002E26D1394802213C300059009038
:10268000FDF748FE354960310959FDF76FFD3E59A8
:102690003146FDF76BFD3649FDF7C1FD3549095956
:1026A000FDF7BDFD34490968FDF7B9FD2B4909590E
:1026B000FDF75CFD29490851603100980851084632
:1026C0002438065128480C30015924482018FFF7B7
:1026D000A3FC28480C3801593859FDF7A0FD1F4EBE
:1026E0001E4924360959FDF741FD30510490214817
:1026F0000C3000590390002825DD3746ED002437C3
:10270000E819019000214068C943FDF703FE0290DB
:102710001A4800210059C9430090FDF7FBFD0299BA
:10272000FDF775FD0399FDF77AFD1249283989698E
:10273000FDF775FD0499FDF76EFD3051019879594B
:1027400041600098785108480159A019FFF764FCCE
:10275000305905B0F0BD00003401002038020020DF
:1027600048E17A3F1803002050320008CDCCCC3D20
:102770007EAA2A3E78000020900100209C040020C0
:1027800010B5044801680448FDF786FD03498861D7
:1027900010BD00009001002017B7513B50000020F1
:1027A000FEB5022569460D710320487100248C7125
:1027B000CC7101212846FEF70FF8314F31483946D8
:1027C000FFF7A5FB01210E023046FEF705F839465A
:1027D0002D4F3846FFF79BFB2C48602101800121DB
:1027E000418084810682846010200924E4060090E0
:1027F00069462046FDF76BFF042211462046FDF78F
:102800009EFF22493846FEF777F84020009069463F
:102810002046FDF75CFF012206212046FDF78FFFD1
:102820001A491848FEF768F880200090694620464B
:10283000FDF74DFF012207212046FDF780FF1349D8
:102840001048FEF797F8124C694620460095FDF7B0
:102850003EFF012211462046FDF771FF0B49094852
:10286000FEF7D0F801210748FEF730F801210548AE
:10287000FEF736F801213846FEF728F8FEBD0000C5
:10288000CF0700000004004000200040C0040020EA
:102890000004004810B50A46044612491046FDF7E8
:1028A000BEFCFDF755FD002801DA002003E00E49CB
:1028B000884200DD0846002C09D0012C0CD00B49C1
:1028C000022C0CD0032C01D180B2886310BD0749C3
:1028D00080B24031086010BD80B2054900E080B28E
:1028E000486310BD00E0F944CF0700000004004039
:1028F00000200040F8B506467F20C0050C46814206
:1029000001DD044603E010498C4200D90C46214603
:102910000746FDF77CFC3146FDF781FC0546314654
:102920000846FDF77CFC3146FDF779FC2146FDF7B2
:1029300076FC2946FDF71AFC009039466846FFF7F9
:102940006BFB0098F8BD0000000080BF70470000DE
:10295000FEB5214D2149286809680191FDF75FFC0A
:102960001F4C0746A66801463046FDF758FC6168D3
:10297000FDF751FC39460090FDF751FC3146FDF75B
:10298000F5FB074668680199FDF749FC0290266847
:1029900001463046FDF743FC3946FDF73CFCA0609C
:1029A0000299FDF73CFC3146FDF7E0FB0646A868BE
:1029B0000199FDF734FC054601460098FDF72FFC10
:1029C0003146FDF728FC29462060FDF728FC0099D8
:1029D000FDF7CCFB6060FEBD9C0400209001002050
:1029E000380200207CB54448012585730021C1735D
:1029F00005710221414800F0B1FB404807217730C2
:102A000000F0ACFB3D480621653000F0A7FB3B48D9
:102A10000421383000F0A2FB6420FEF7FEFD3748A9
:102A200006216B3000F09AFB0021012000F0FEFB34
:102A30000121022000F0FAFB3921062000F0F6FB0C
:102A40000F21112000F0F2FB0021042000F0EEFB2A
:102A50000321084600F0EAFBE22000F0A1FB002180
:102A6000052000F0E3FB38211D2000F0DFFB00F023
:102A700031FAFD2000F072FA002000F06FFA00F049
:102A800023FA8F21002000F0D1FB0F2000F0A9FBDA
:102A9000C62802D00320FEF7CBFD184CA068002802
:102AA00027D017486A4603C80191009001202146AB
:102AB00060310B18203BDB7F1354401C0628F8DBE9
:102AC0000621104600F04AFB3020694608700621B6
:102AD000684600F043FB094821694030415C2520ED
:102AE00000F0A4FBE5606068002801D00548606242
:102AF0007CBD25627CBD000084030020B400002062
:102B00006832000888130000012040020921C9062C
:102B10008861024901208860704700009C00002005
:102B2000012040020921C90688610349088103493F
:102B30000020886070470000200000489C000020B2
:102B40000120034940020881024900208860704743
:102B5000200000489C00002010B5074C2068002889
:102B600001D100F077F8012080020921C9068861AF
:102B70000120606010BD00009C00002010B5064CD4
:102B80002068002801D100F065F801200349800287
:102B900008810020606010BD9C00002020000048DB
:102BA00070B590B000206C4681006050401C0F282A
:102BB000FADB852000902248224D066822480196C3
:102BC00029460068FDF72BFBFDF7C2FB0104C0B2EC
:102BD000090E049003911D4829460068FDF71FFB6C
:102BE000FDF7B6FB0104090EC0B2194D0591069020
:102BF000A86CC10F08184010FF2800DDFF200790C7
:102C0000002E03D0039808210843039000210846B2
:102C10008200A258401C51180E28F9DBE1200E91C9
:102C200000F0BEFA8221002000F000FB0F21684670
:102C300000F0E8FAFEF784FFE86410B070BD000011
:102C4000700100200000C8426001002064010020E3
:102C5000B400002010B50549012008600C3108714E
:102C60000920C006FDF733FD10BD00009C000020C8
:102C700010B57520FFF77DF8682807D0982805D093
:102C80007D2803D0722801D0002010BD012010BD86
:102C900010B580216B20FFF772F81248FEF7BDFCDB
:102CA00001216B20FFF76BF87520FFF762F86828A9
:102CB00001D0012400E000246420FEF7AEFC1821BE
:102CC0001C20FFF75CF8002C03D005211D20FFF726
:102CD00056F818211B20FFF752F803211A20FFF79E
:102CE0004EF810BD409C0000F0B593B00E2269462E
:102CF0003B20FFF735F8029803990002401800B214
:102D0000FDF714FB2E4C206000980199000240183A
:102D100000B24042FDF70AFB60600498059900028A
:102D2000401800B2FDF702FBA06008980999000264
:102D3000401800B2FDF7FAFA11900A980B990002B8
:102D4000401800B2FDF7F2FA10900C980D990002AD
:102D5000401800B2FDF7EAFA129024342168109866
:102D6000FDF755FA109061681198FDF750FA11902F
:102D7000A1681298FDF74BFA12900120109AC00733
:102D800011994240109111464140119112990C4FF6
:102D90004140002410AE0C371291A500705909492A
:102DA000FDF73DFA0849FDF73AFA70512146FFF761
:102DB00081F9641C7851032CEFDB13B0F0BD0000E7
:102DC0009004002000007A3D35FA8E3CFEB50126C5
:102DD000B60201246846009604718471C47103250B
:102DE00009274571FF0669463846FDF770FC600209
:102DF000009069463846FDF76AFC084800210660E5
:102E000001718471C47145710C3841600460816046
:102E1000FFF7A2FEFFF778FEFEBD0000A80000202D
:102E200070B50D460446FDF729FF60000446FDF726
:102E300001FF2846FDF7FEFEFDF7EEFE601CFDF7E4
:102E4000F9FE0120FDF7AEFEC4B2FDF729FF2046D2
:102E500070BDFFB581B01D46164607460024FDF73C
:102E60000DFF78000746FDF7E5FE0298FDF7E2FE4C
:102E7000FDF7D2FE781CFDF7DDFE6D1E05E000209B
:102E8000FDF790FEA1007050641CAC42F7DB0120FE
:102E9000FDF788FEA1007050FDF702FF05B0F0BD00
:102EA00070B515460E460446FDF7E8FE6000FDF7D6
:102EB000C1FE3046FDF7BEFE2846FDF7BBFEC4B29C
:102EC000FDF7EEFE204670BD014901208861704784
:102ED000001400480149012008817047201400486F
:102EE000FEB501246846047100258571C47103266E
:102EF000467102200B4F009069463846FDF7E7FB0C
:102F0000694638460094FDF7E2FB07480460057106
:102F10008571C471467101460920C006FDF7D7FBD3
:102F2000BC61FEBD00140048B401002070B4002054
:102F300007210223074C0925074EED06A361420035
:102F4000288A3381C007C00F1043491EF6D570BCD4
:102F5000704700000014004820140048F8B50446EB
:102F60000F4809260168F6060125002906D10560EB
:102F70000C48057101463046FDF7A9FB07210A4BB5
:102F80000A4F022022460A41D20701D0B56100E073
:102F90001D81B861064A1081491EF3D5F8BD0000B5
:102FA000B0010020B40100202000004800140048B7
:102FB0002014004870B50C4AC9008C18054660689A
:102FC0000A492060FDF72BF9064609492846FDF716
:102FD00026F93146FDF7CAF86060226801461046BE
:102FE000FDF7C4F870BD0000F004002007715D3FDC
:102FF000E23B8A3DF8B5474D044601682868FDF775
:10300000C1F904D161686868FDF7BCF955D0206842
:1030100028606068404E686031466068FDF7FFF8E0
:103020003E4F3946FDF7FBF8054631462068FDF76F
:10303000F6F83946FDF7F3F80646FEF725FB354C62
:10304000083420602846FEF71FFB60602846FEF724
:1030500011FB05463046FEF70DFB2946FDF7DFF86C
:103060000646A06060680146FDF7D9F8054620686D
:103070000146FDF7D4F82946FDF778F828490546BA
:1030800088420FDD31460846FDF7C9F87F21C905A2
:10309000FDF7C1F801462846FDF7FEF8FDF766FB8F
:1030A000054600E01F4D20682946FDF7B8F820606E
:1030B00029466068FDF7B3F86060164C1A4E083474
:1030C000A068009070680099FDF7A9F8B7680546F8
:1030D00061683846FDF7A3F82946FDF798F8134DC7
:1030E000686030680099FDF79AF80646384621680E
:1030F000FDF795F83146FDF78AF87F24E40528604E
:1031000021462846FEF788FF2146281DFEF784FF4A
:10311000F8BD0000BC01002000008C4235FA8E3C56
:103120006F12833AF4FD343FD00100208404002064
:1031300010B50848064941610749CA6903231202CC
:10314000120A44042243CA6100218161036110BD57
:103150007F8D5B0000E000E004ED00E070B50D46FF
:103160000646FFF7B7FE002404E0305DFFF7F6FEE9
:10317000641CE4B2AC42F8D3FFF7A6FE70BD0000B9
:10318000064A10B580008018FDF75AFA042804D0CA
:10319000FDF74EFA0520FEF74BFA10BD007C000843
:1031A00010B50446FFF796FE2046FFF7D7FEFFF75F
:1031B0008BFE002010BD70B50D4606460024FFF7BB
:1031C00089FE6120FFF7CAFEFFF772F904E0FFF7FE
:1031D000ADFEA1007050641CAC42F8DBFFF774FE3A
:1031E00070BD10B5C406E40EFFF774FE2046FFF76D
:1031F000B5FEFFF75DF9FFF799FE0446FFF764FEA1
:10320000204610BD70B50D4606460024FFF762FE4D
:10321000A020FFF7A3FE04E0A0003058FFF79EFEB9
:10322000641CAC42F8DBFFF74FFE70BD70B584063E
:10323000A40E20200D460443FFF74CFE2046FFF766
:103240008DFE2846FFF78AFEFFF73EFE70BD0000A8
:10325000CDCC4C3FCDCC4C3F0000003FCDCC4C3FC3
:10326000CDCC4C3F0000003F2A00000000000000D1
:103270002A00000000000C0100010003000C020005
:10328000020003000C0300030003000C0400040010
:1032900004000C0400030004000C040003000300FD
:1032A0000C0400030002000C0400030001000000F5
:1032B000D43200080000002014020000540400086A
:1032C0006833000814020020F4060000620B0008B6
:1032D000A1D8FFFF01160326E040031820C11A6C95
:1032E0001D400DD3C18A3F146B963E91C7563E2DAB
:1032F000B81E053E0438089A99193F0AD7A3042836
:10330000099A99993ECDCC0C3F0469381A78041A71
:1033100084040118032239010312B80B05293EF673
:10332000375D50083F0A6D679C462A490620083AD7
:103330004521EF2C5A50297F29040524CDCCCC3DC2
:1033400025666686403A80E0E9BB491C61A91C09F4
:1033500021E311A0097B14524185EB4141496409E5
:08336000100C0924F2810000A9
:04000005080000C926
:00000001FF
