:020000040800F2
:10000000280A0020C9000008EF0000087B0700084C
:1000100000000000000000000000000000000000E0
:10002000000000000000000000000000F3000008D5
:100030000000000000000000F5000008750900083D
:10004000F9000008F9000008F9000008F9000008AC
:10005000F9000008F9000008F9000008F90000089C
:1000600000000000F9000008F9000008F90000088D
:10007000F9000008F9000008F9000008F90000087C
:10008000F90000080000000000000000F90000086E
:1000900000000000F9000008F9000008F90000085D
:1000A00000000000F900000800000000F90000084E
:1000B0000448854600F0C6F900F052F800480047B1
:1000C000BD2B0008280A00200C4880F308880C4843
:1000D0000168090E0B4A914205D10B480B4901609A
:1000E0000B480C4901600C4880470C480047FEE76C
:1000F000FEE7FEE7FEE7FEE7FEE70000280A002035
:10010000040000001F000000181002400100000061
:10011000000001400000000079090008B10000085B
:1001200030B50B46014600202022012409E00D468F
:10013000D5409D4205D31D469540491B2546954017
:1001400040191546521E002DF1DC30BD0321001D63
:10015000401E037812021A43491EF9D51046704713
:1001600070B5054C054D03E0206800198047241D3B
:10017000AC42F9D170BD0000383E00083C3E00089A
:10018000F8B502464A40D40F42004B0052085B08C3
:100190009A4202D20246084611464A0023D0C30DB5
:1001A0004A00DDB2120EAD1A202D35DA49020126C1
:1001B000490AF6058A19002C00D0524220214F1B13
:1001C0001146B9402A411018C20D9A4221D0002C84
:1001D00017D0012D08DCDA05801AD20F8019D2075A
:1001E000DBB200F0F5F8F8BDDA05801A0123400013
:1001F0001B06C01880185A428018CA0F10434900C5
:1002000007E04908C2071143DA05801A801940083F
:10021000801800F0D5F8F8BD61000122511A001BCA
:10022000F7E70122D2075140AAE70122D207504046
:10023000A6E7024670B54A40D30FDB0740002DD039
:100240004A002AD0010E140E000212020919400AB7
:10025000520A8418E50104465443000A120A2E0487
:100260005043A4194219200CC543AA18120C0125A9
:10027000AD03521C521912047F39240400D0521CC1
:10028000104301D44000491EC2B20C06C009201818
:10029000401C4008802A02D003E0002070BD4008C6
:1002A0004000002900DA0020184370BD70B50246F6
:1002B0004A40D50F40004A00ED0740085208002888
:1002C00014D0002A12D0C40DD30D41020120C00564
:1002D0005202490A520AE41A091812187D3491424E
:1002E00001D3641C00E04900002C01DA002070BD3D
:1002F0000023914201D3891A034340084900002892
:10030000F7D100290AD0914202D10121C90705E0A5
:10031000914201D2012101E00121C943E005C01849
:10032000401900F04DF870BD420005D04200120E99
:1003300052428A4201DB00207047C9050818704705
:10034000C217C10F504010B54018CA0796230021AC
:1003500000F03EF810BD10B500229623114600F0C3
:1003600037F810BDC20F410040020123400ADB05EF
:10037000D207090EC0187F2901DA0020704796299C
:1003800003DC9623591AC84001E096398840002AB8
:10039000F4D04042704700000122D207002800DB61
:1003A000101A002900DB511A814270470122D2073E
:1003B000002800DB101A002900DB511A8842704720
:1003C000002904DA401C490001D140084000704770
:1003D00070B40024050C05D11024000402D10029BA
:1003E00021D01124050E01D100020834050F01D1DE
:1003F0000001241D850F01D18000A41C002801DB11
:100400004000641C002908D020252E1B0D46F54015
:10041000A14000D001212943084301061B1B000A0B
:10042000DB1D02D5002070BC7047DB051818801852
:100430000029F8DA401C4900F5D170BC40084000A2
:1004400070470000064C0125064E05E0E36807CC26
:100450002B430C3C98471034B442F7D3FFF72CFEE3
:10046000183E0008383E000870B58C180578401C0E
:100470006B075B0F01D10378401C2A1106D102786B
:10048000401C03E006780E70401C491C5B1EF9D12D
:100490002B0705D40023521E0DD40B70491CFAE71C
:1004A0000378401CCB1A921C03E01D780D70491C88
:1004B0005B1C521EF9D5A142D8D3002070BD836ABF
:1004C0000B438362426170470029816801D0012299
:1004D00000E002221143816070470029C16802D008
:1004E0000122114301E049084900C1607047C26818
:1004F00002239A43C260C2680A43C260704782689E
:1005000000210123DB071A4382600F231B0382684B
:10051000491CD20FD207994201D0002AF7D1816835
:10052000002901DB006C70470020704730B5C268BD
:10053000084B8C681A400B680D792343CC686D0317
:100540002C4323430C69496923430B431343C36082
:1005500030BD000003D2FFFF816804221143816097
:1005600070470021016001718160C16001614161DA
:10057000704700000122054992050028886801D0D3
:10058000104300E09043886070470000002701405E
:100590000029016802D00122114301E0014A114003
:1005A00001607047FEFF000030B503680C4A0C6A1A
:1005B00013408A684D6922430C692C4322438C699D
:1005C0002243CC6922434C6A22438C6A22431A4359
:1005D0000260CA6842600A6882604968C16030BDD2
:1005E0000F80FFFFF0B50B2706463F04384600F0AA
:1005F00067F804280FD1084C2069022528432061A0
:1006000066612069402108432061384600F058F8AF
:100610002169A9432161F0BD00200240084904205E
:10062000CA68D20701D001207047CA68D20601D536
:1006300002207047C9684907FBD5032070470000B6
:100640000020024002480169802211430161704785
:1006500000200240F8B5064600200B273F0400901A
:100660000D46384600F02CF8042815D10B4C2069B3
:100670000121084320613580384600F021F8042824
:1006800006D1B61C290C00963180384600F018F8C7
:100690002169490849002161F8BD0000002002409D
:1006A00004480169090603D50349416003494160D3
:1006B000704700000020024023016745AB89EFCD61
:1006C00000B50346FFF7AAFF02E0FFF7A7FF5B1E96
:1006D000012803D0002B00D1052000BD002BF4D150
:1006E000FAE7F0B50022032501230C6893401C4073
:1006F0009C422AD10C79012C01D0022C12D187689E
:1007000054002E46A640B74387604E79A6408468C1
:100710002643866084889C43848084888B799340B8
:100720001C438480066853002C469C40A643066008
:100730000E7907689E403E430660C668A643C660C1
:10074000CC799C40C3681C43C460521C102ACBD394
:10075000F0BD4B07DB0E9A40C90810B58900081898
:10076000016A0F249C40A1430162016A11430162A6
:1007700010BD0185704781617047052001F09AFA2C
:100780000029016802D00122114301E04908490013
:1007900001607047012292030029416801D0114392
:1007A00000E09143416070470246926900200A428E
:1007B00000D001207047000010B5026852085200B6
:1007C00002600268134B8C681A4024024B68144381
:1007D000234303600F230A681B069A4302610268E1
:1007E00001231A43026000228260C2600B698A6999
:1007F0001A43826082680123DB031A438260CA685D
:100800000368134303604268034B49691A4011436C
:10081000416010BDFFE0CF00FF7FFF07406AC0B21C
:10082000704781627047000070B5049D4468890577
:10083000890D1204034E11431943344029432143C7
:10084000416070BD009800FC70B5FF250021044692
:10085000AD05C943FFF768FD06460F4960100C1A45
:1008600021463046FFF7E5FC2146FFF7E2FC29462A
:10087000FFF7DBFC2146FFF7DCFC0446014630466F
:10088000FFF7D7FC2146FFF7D4FC2946FFF7CDFC44
:100890002146FFF7CEFC70BDDF59375F044A0029BF
:1008A000516901D0014300E081435161704700006C
:1008B00000100240044A0029D16901D0014300E040
:1008C0008143D1617047000000100240044A0029B2
:1008D000916901D0014300E08143916170470000BC
:1008E0000010024004490A6B10239A430A630A6B02
:1008F00002430A637047000000100240044A0029C6
:10090000116801D0014300E081431160704700008D
:10091000000001400CB50020009001901349112007
:1009200008601348416841604168416041687B222A
:10093000D2039143416041680522D20411434160D2
:100940000168012212061143016001688901FCD58A
:100950004168890889004160416802221143416071
:1009600041680907890F0229FAD10CBD0020024015
:10097000001002407047000010B5144801680122C1
:10098000114301604168124A114041600168114AF7
:1009900011400160016801229204914301604168A5
:1009A0003F22120491434160C16A09090901C162F1
:1009B000016BFF22543291430163416B49084900A6
:1009C000416300218160FFF7A5FF10BD00100240C8
:1009D0000CB8FF08FFFFF6FE0029018802D00122B3
:1009E000114301E049084900018070474030002967
:1009F000818803D00122D203114301E04904490C4C
:100A00008180704770B5028C520852000284048CB9
:100A10008288038B7025AB439B080D889B001D4388
:100A200002239C438E894B882643104C3343A042BB
:100A300008D00F4CA04205D00E4CA04202D00E4C64
:100A4000A0420DD10824A343CC891C4304239C431A
:100A50008B882343094C22400C8A14434A8A224340
:100A60008280058389684163038470BD002C014046
:100A7000004001400044014000480140FFFC0000EC
:100A800070B5028C10239A430284048C8288038BF5
:100A90001A4D2B400D782D062D0C1D4320239C4311
:100AA0008B891B051E0C4B8826431B051B0C144C05
:100AB0003343A04202D0134EB04219D1124E3240FD
:100AC0000E8AB604360C3243A04211D18024A343CF
:100AD000CC892405240C1C4340239C438B881B0594
:100AE0001B0C2343094C22404C8AA404240C2243AF
:100AF0008280058389688163038470BDFF8C000058
:100B0000002C014000400140FFFB0000FFF7000007
:100B100030B5028C124B1A400284058C8288838B7C
:100B2000104C23400C782406240C1C430E4B1D4013
:100B30000B7B1B071B0C2B438D782D072D0C1D43A6
:100B40000A4B984205D10A4B13400A8A9205120CAF
:100B50001A438280848389680164058430BD000063
:100B6000FFEF0000FF8C0000FFDF0000002C0140C1
:100B7000FFBF000010B50288144B984206D0012434
:100B8000A407A04202D0124CA04203D17024A24379
:100B90004C8822430F4CA04203D00F4C22400C89BA
:100BA000224302804A68C2620A880285984208D0BD
:100BB0000A4A904205D00A4A904202D0094A90421D
:100BC00001D1897A01860121818210BD002C01406A
:100BD0000004004000100040FFFC00000040014005
:100BE0000044014000480140014603488860034832
:100BF000C8600846704700000AD7A33C249A843D89
:100C00000146034888600348C860084670470000F2
:100C10000AD7A33C249A843D002101607047FFB5A8
:100C200081B01C4617460E0007D0019D02E0284601
:100C3000B047ED192046641EF9D2019805B0F0BD09
:100C400002E008C8121F08C1002AFAD17047704795
:100C5000002001E001C1121F002AFBD170470000F3
:100C600010B5032310220B490B48FFF7D8FF0A48A1
:100C70000323102209493030FFF7D1FF0848002133
:100C8000016005480323082206496030FFF7C7FFCB
:100C900010BD0000E90B0008AC050020010C0008A5
:100CA0005C020020190C0008F8B5154E452000061E
:100CB00037460025183FB06002F020FE0024A00057
:100CC000395880190F4A01F0B8FE641C032CF6DB7A
:100CD00001F060FBFF20F5306D1C8542ECDB452107
:100CE0000906B068FFF79DFA074D0024B060A00028
:100CF0008019294601F08EFE641C032CF7DBF8BD39
:100D0000700500201F856B3F0000FA4370B592B05C
:100D1000202503206946069508770024CC77092012
:100D200006A9C006FFF7DDFC01214802FFF7CEFD52
:100D300001210846FFF7B2FD2A4806902A4807908D
:100D40000220099080200B9040000C9008948000B5
:100D50000E950D900A94C000244D0F9006A9109492
:100D60002846FFF721FC1F4E0221403E3046FFF788
:100D7000BEFB01213046FFF7B0FB6846FFF7F1FBF1
:100D8000012069460094087104200590029404949F
:100D90003046FFF7CBFB0121072249043046FFF71D
:100DA0008EFB072220213046FFF789FB0120FFF749
:100DB000E1FB3046FFF7A3FB01213046FFF784FB40
:100DC0003046FFF7C9FB01212846FFF7E1FB084841
:100DD0000088FFF7C0FA0749FFF72BFA024948607D
:100DE00012B070BD40240140F8010020080002400C
:100DF000BAF7FF1F6EDB963F10B50B49002803D0F2
:100E0000012808D0002010BD0888FFF7A4FA074980
:100E1000FFF70FFA10BD4888FFF79DFA0146024818
:100E20004068FFF743FA10BDF80100203333B33AAE
:100E3000F0B58400304887B005597F21680040082C
:100E4000C9050290FFF7F1F906462946FFF7F1F9C7
:100E50002949303909680191FFF7EBF905902946D6
:100E60000298FFF7E6F92449203909680091FFF755
:100E7000E0F907462048083001592846FFF7D1F924
:100E80001D49049028390968FFF7D3F93146FFF767
:100E9000D0F91A4909680391FFF7CBF90599FFF7D3
:100EA0006FF9154906461039085108390498096840
:100EB000FFF7BFF90299FFF7BCF90399FFF7B9F9FA
:100EC0003946FFF75DF90C490839085101463046AB
:100ED000FFF756F9084E10363051304608380551A4
:100EE00000990198FFF74CF90146A01901F092FD15
:100EF000305907B0F0BD0000440000208C000020F5
:100F0000F8B505460C46480000D1294C01210026C1
:100F1000C9078D4203D94C404D408126F605002C6F
:100F200009DC204648402C46054601218907304609
:100F3000FFF726F9064621462846FFF737FA10D86C
:100F400021462846FFF76DF9074621462846FFF758
:100F500017F904467F213D46C9053046FFF710F9D1
:100F6000064621462846FFF7A1F904461149FFF736
:100F700060F91149FFF704F92146FFF75AF90F49C3
:100F8000FFF7FEF82146FFF754F904460C493046B6
:100F9000FFF74FF92146FFF7F3F80A49884202DDCF
:100FA0000949FFF73EF90949FFF743F9F8BD000089
:100FB000567C0A2A4BC887BD7EAE36BE42DA833FD6
:100FC000DB0F493FDB0F4940DB0FC940E12E654293
:100FD00070B5184CE06B002804D00025012809D01A
:100FE000E56370BD0120A06202F0B8FBE06B401C1D
:100FF000E06370BD172002F09EFEC00608D58F2169
:10100000002002F0BDFEE563A56202F035F870BD78
:1010100001F0C0F9E16C401A07498842F7D9E12094
:1010200002F068FE8F21002002F0AAFEE563A562AF
:1010300070BD0000E80000201027000070B50025FA
:1010400006462C46A00030580146FFF7F2F8294624
:10105000FFF796F8641CE4B20546032CF2D3FFF7C1
:10106000F3FB01467F20C005FFF720F970BD0000AB
:10107000F8B51D4D0C216E68074632464A431B49A0
:10108000184853182A6894001959002F02D0491C97
:10109000195102E0491E16481951002E06D1002AA6
:1010A00001D0012A02D10F49FFF7C3F80021C9433B
:1010B000FFF73AF9AE683159FFF762F8002800DD12
:1010C00030512968002902D1002800DD706068686D
:1010D0000C225043054A890080184058002800DA45
:1010E0004042F8BDCDCCCC3D70000020A0020020D5
:1010F000CDCCCCBD30B5002207239C1A6418203C0F
:10110000855CE47FA54201D0002030BD521C072A37
:10111000F3DB012030BD0000FEB5072002F00BFE1E
:101120000007400F0026072801D0022000E03046CB
:1011300001246D4D002869D0E86800281DD001F019
:1011400029F907460F21694802F0DFFD00F0FCFC99
:10115000002853D0686C401C68646868002801D07F
:10116000FFF736FF2E636E6328692F656F65EE62A9
:10117000E865A86A00283FD040E00F215B4802F0F4
:10118000C4FD5A4B1868A42801D0A3283ED1A32837
:1011900002D157486C6068625348197E4030017034
:1011A000197F4170198C8170998CC17051494E4FD3
:1011B0008868C96800900120019160378100595CFE
:1011C0006A4611543A18203A401CD1770628F5DBBC
:1011D0000621684602F06CFD302069460870062141
:1011E000684602F065FD404829694030415C252091
:1011F00002F0C6FDEC6009E001F03EFFA869401C6A
:10120000A861092802DD0A206C61A861A86A00288B
:1012100001D0FFF7DDFE01F0BDF80746286D391A51
:10122000686A82007D20C000101881420BD9E868EE
:10123000002808D02F65686B002801D1E86D28616F
:1012400001F01AFF6C63A96A686B084319D1286B17
:101250000090052815D2E868002812D0286D7D215D
:10126000381AC90088420CD9696AFEF759FF01464D
:101270000098401C814204D301F0FEFE286B401C04
:101280002863686D391A1C48814206D91B48EC62F4
:10129000066046608660C66002E0E86A002803D007
:1012A000286A002802D011E02C620FE0E869144996
:1012B000381A88420AD90C48EE60062171302C6237
:1012C00002F0F6FC0021052002F05AFD01F062F860
:1012D000A96D411A0848814205D9686C6E64A864FA
:1012E00001F058F8A865FEBDE80000204803002082
:1012F00088130000BC3D000840420F00100500208C
:10130000C0E1E40000B502F083FA00BDF0B57F2033
:101310008BB0C0050490F948807B002802D13F20A3
:10132000000604900025F64F2C46F648AE00805982
:10133000F54942005208B8518A4201DCBC510FE025
:101340000122D207904204D87F22D20500230092C6
:1013500003E0EE4A0023EE49009201F033FEB8515B
:101360006D1C032DE1DB02F001F8E54D04982968BE
:10137000FEF75FFFE74E3146FEF75BFFE64F39466B
:10138000FEF757FF019069680498FEF752FF314657
:10139000FEF74FFF3946FEF74CFF0290A96804980C
:1013A000FEF747FFDD49FEF744FF3946FEF741FFF0
:1013B0000390D248DA4EC0780C3D002803D0D948BB
:1013C0000068002834D0D848019901600299416032
:1013D000039900278160D248BE008159D2488059C4
:1013E000FEF71FFF7F1CA851032FF4DB02F0D4F897
:1013F000002001F061FE012001F05EFE022001F0FC
:101400005BFEBE48C94B0278C948CA490127CA4E8B
:10141000002A7DD0BB4AD568C84A954202DD0A68D9
:10142000002A76D01A68012AFBD007600F604FE1CE
:101430000021B34802F06EFBC14F03997868FEF7B4
:10144000F8FE049001213868C90748400399FEF767
:10145000F0FE0590B86803990746FEF7EAFE06908D
:10146000B8480990B8480890B8480090A348B849CF
:10147000027AC079002A7DD0002814D003C9470021
:10148000490049087F0838460791FEF78FFF00D9C9
:10149000079F08993846FEF77FFF16D83846089907
:1014A000FEF704FF13E00120C007874237D8A948A0
:1014B0000168A94801600020FFF7BAFC0499FEF713
:1014C0005FFE3168FEF7ADFE4DE07F20C00508905D
:1014D0008B480099006847007F083846FEF75CFF9C
:1014E00005D838460099FEF7E1FE074601E07F2760
:1014F000FF0508990998FEF79CFE00909748394629
:10150000FEF797FE0099FEF73BFE07468C4801E088
:10151000D3E0DAE081680120C007814202D9316856
:101520000198CFE78B4801688B48016031680198CA
:10153000FEF777FE3946FEF77CFE00907F203946A5
:10154000C005FEF76EFE07460020FFF771FC049908
:10155000FEF716FE3168FEF764FE3946FEF769FEB7
:101560000099FEF70DFE286071680298FEF759FE9B
:10157000686000E001E0B1689AE000287ED07F203A
:101580000027C0050999FEF74CFE0A90704903C96F
:1015900040004D006D08400806462946FEF706FF4C
:1015A00000D8354628460899FEF7F6FE04D82846A6
:1015B0000899FEF77BFE01E07F20C00507905048A8
:1015C000BD0040590099460076083046FEF7E4FE1B
:1015D00005D830460099FEF769FE064601E07F26F1
:1015E000F60507990998FEF724FE079031460A98F8
:1015F000FEF71FFE0799FEF7C3FD064650488168B7
:101600000120C007814206D94548415901A84059E7
:10161000FEF707FE24E04F4841594F4841514048EA
:10162000415901A84059FEF7FCFD3146FEF701FE85
:1016300007907F203146C005FEF7F3FD0646384689
:10164000FFF7F6FB04A94959FEF79AFD34494959B9
:10165000FEF7E7FD3146FEF7ECFD0799FEF790FD3A
:1016600027497F1C0C394851012F8FDD2C48816898
:101670000698FEF7D6FD22490C3900E001E08860AB
:10168000B4E600273348BE008159334881513846BB
:10169000FFF7CEFB04A98959FEF772FD204989594D
:1016A000FEF7BFFD7F1CA851012FEBDD1C488168B0
:1016B0000698FEF7B6FDA86098E604602848006822
:1016C000012800D11C60F46154E0264A04601760D0
:1016D000F761006800284DD0380050D022492846D4
:1016E000FEF7A7FD2149FEF74BFDB0611348854287
:1016F00055DD1F480168002950D050E0400400200B
:10170000D0030020100500200AD7233C000080BF32
:101710000AD723BC0000574435FA8E3C0000FA4338
:1017200064050020380200200C030020E0010020A6
:10173000F0010020F40100206C010020CDCCCC3D54
:10174000200200209A99993E00005C423333733F97
:101750004C05002040050020440000203333333F77
:10176000FC000020C001002077BE7F3F6F12833A4B
:10177000EC010020D548B46104600C600FE0D4494E
:101780008D4203DAD148B461046008E02846FEF7D0
:1017900048FDD049FEF74DFDB061CC480760CE480A
:1017A0000079002819D0CD49B461CD4B0868984222
:1017B00011D2CC4A90420EDA486898420BD290423D
:1017C00009DA8868984206D2904204DAC86800288C
:1017D00001DD904201DBC4480760C448006800286E
:1017E00003D1C348B169814223DA7068002807D069
:1017F00000F0D0FD7168401ABE49884200D974607B
:101800000025E8B2002101F069FE6D1C032DF8DD12
:10181000B94D00212A46B94801F00FF9B7482A46C8
:101820000021001D01F009F9B461376034620BB08A
:10183000F0BD0020306000F0ADFD7060B048006881
:10184000002802D0AF48C068B061AF4800240068EB
:1018500001283FD1AD48AF4D0168AD48814205DA5E
:10186000FEF7DFFC2946FEF7E4FC0446AA480168BF
:10187000AA48814205DAFEF7D4FC2946FEF7D9FCD6
:1018800004467F20C005844201DD044601E0002CAF
:1018900007DDA3492046FEF7CCFC7169FEF770FC1A
:1018A00003E093497069FEF7BCFC3F2109067061B3
:1018B000884201DD716105E00121C907884201D933
:1018C0000020706120467169FEF75AFCB169FEF78D
:1018D000ACFCB0619348944F00680890002804D194
:1018E0000121B868C9074840B860386800900146CF
:1018F0008248083880690646FEF793FC09907D68A7
:101900002946FEF78EFCBC682146FEF739FC07909D
:1019100030460099FEF734FC06462946FEF781FC66
:101920002146FEF77EFC059029460998FEF728FC23
:101930002146FEF776FC069030462946FEF720FC4D
:101940002146FEF71DFC04900898002803D10120D1
:10195000C0074440BC600020401C0328FCDD002080
:10196000634F044604AE0090A50070590099FEF73D
:101970001DFD01D27059009070593946FEF70CFDDB
:1019800000D27759641C042CEEDB7F21C905009836
:10199000FEF747FC3F252D06A84200DD2846574CA0
:1019A000083CA168FEF702FD04D26049A068FEF77A
:1019B000E7FB03E05E49A068FEF733FC4C4FA060F4
:1019C000A84201DDA56003E05A49884200D9A16020
:1019D0004A48012108388068C907884200D956481A
:1019E0005649FEF726FC00280DDD3946FEF7C8FBF8
:1019F00007460024A50070593946FEF712FC641C06
:101A00007051042CF6DB3148006801281ED10025F6
:101A10002C46A700F0592946FEF7BEFC00D2F55926
:101A2000641C042CF5DB4648854201D9054603E0D9
:101A30000120C007854209D90024A700F059294692
:101A4000FEF7EFFB641CF051042CF6DB2B49002061
:101A500008391F4F05467F1E0862AC00315901202E
:101A6000C007814201D9002003E07F20C0058142E8
:101A700000DD305133483159FEF7DBFB3946FEF7C4
:101A80007FFB305101F0CCFA0146E8B201F026FDAF
:101A900030590121C907884202D90020305104E0A1
:101AA0007F21C905884200DD31513159134C083C72
:101AB000206AFEF765FB6D1C2062032DCDDD012140
:101AC000C943206AFEF730FC2062B0E6EC0100203A
:101AD000CDCC4C3D9932873F4004002010050020BA
:101AE000A4707DBFA4707D3FC001002014010020C0
:101AF0006F12833A40420F00EC51383F74010020CE
:101B0000400200209C050020E4010020A8010020E4
:101B1000CDCC2C4000004040AC010020333353407A
:101B200017B7D138E8010020000300200AD7A33BF3
:101B30000AD7233CCDCCCCBD17B7D1B8CDCCCC3D4A
:101B4000CDCC4CBE3333733FF8B5494D2868A5283A
:101B500072D1002108468200AA58401C51180E2854
:101B6000F9DBC8B2A96B884266D14148103001F058
:101B700093FA404C20603E48183001F08DFA6060C6
:101B80003B48283001F088FAA060288C696A8007F9
:101B9000800D4018FEF7D4FB3749FEF74AFBE060A2
:101BA0002B7B1806C10F35488171A9688E06F70F87
:101BB000CA069E06D20FC2710772F60F5B07C67285
:101BC000DB0F83720B07DB0F03706B68FA2B10D0EF
:101BD00000232A4D88076B70C00FA870C807C00F7C
:101BE000E870274D29D0274E002F07D0002A02D0B9
:101BF00006E00123EDE73146206803E0002A0AD021
:101C00002946206801F09AFC20602946606801F0AE
:101C100095FC606004E03146206801F08FFC206094
:101C20003146A06801F08AFCA0600020074601262A
:101C3000154B124D154C0DE018E02946206801F0B7
:101C40007DFC20602946606801F078FC60601049E6
:101C5000A068E7E71F54225C295C8A4200D01E542A
:101C60002154401C0E28F5DB0120F8BD0020F8BDF2
:101C70004803002010050020F7FF7F3A40040020B1
:101C8000CDCC4C3FCDCC0C3F3005002020050020B2
:101C90009A99193F10B50020FFF7EAF910BD08B571
:101CA000C100081A0090411E009101D30846FAE7CE
:101CB00008BD000006460024E0B2002101F00EFC41
:101CC000641C032CF8DD0B4DAF0000240CE0FF205A
:101CD00000F08EFE2846FFF7E2FFFF2000F076FEC0
:101CE0002846FFF7DCFF641CB442F0DB3846FFF700
:101CF000D6FFEAE7400D030010B50349FEF740FAAE
:101D000000F004F810BD0000DB0FC93F70B50446B9
:101D1000134E144D03E03146FEF732FA0446AC424E
:101D2000F9D8114DAC4204DD3146FEF77AFA04468B
:101D3000F8E70120C0070D490D4D8442204605D922
:101D4000FEF777FA2946FEF71BFA04E0FEF771FA70
:101D50002946FEF76AFA2146FEF76BFA70BD0000CD
:101D6000DB0FC940DB0F49C0DB0F49407B81CF3E11
:101D700083F9A23FFEB500273D460024681CFEF70C
:101D8000DFFA01900E49A8000E58601CFEF7D8FA41
:101D90000090A10071580198FEF74BFA0099FEF7E8
:101DA00048FA0849FEF745FA3946FEF7E9F9641C96
:101DB0000746032CE9DB6D1C032DDEDBFEBD0000B6
:101DC000D80000208D976E3F10B5FFF7D3FF014973
:101DD000086010BD5C000020F8B50020012400F070
:101DE0002DF93F4DA84279D1FF2000F027F9A842F4
:101DF00074D12046022500F029F93A494860096863
:101E0000FEF7CAFA11D100260024B70028466D1C3F
:101E100000F01CF93449A200C959641C8850032CF5
:101E2000F4DB761C032EEFDB00E00B2528466D1C4F
:101E300000F00CF92D4C6E1C2060284600F006F9CD
:101E40006060304600F002F9A060342000F0F6F83F
:101E5000002203461146CC0018462041C0B27F281C
:101E600000D90122491C0429F5DB002A28D1204988
:101E7000012008601F490860322000F0DFF81E4C86
:101E80002071322000F0DAF81C49000A0860332083
:101E900000F0D4F802460021CB00104618416054EF
:101EA000491C0429F8DB342000F0C8F8144A034622
:101EB0000021CC00184620415054491C0429F8DB6D
:101EC000362000F0C3F8FEF74DFA0E4908603720BF
:101ED00000F0BCF8FEF746FA0B490860F8BD0000B8
:101EE0000100AA125C000020D8000020700500202C
:101EF00068010020F000002048010020EC000020D4
:101F000028010020E4010020E8010020F8B500F0DD
:101F1000A1F800F081F800200124354901F0DAFE33
:101F2000344920460225096800F098F8002600246C
:101F3000B7003148A100C059415828466D1C00F037
:101F40008DF8641C032CF4DB761C032EEFDB2B4C8A
:101F500028466D1C216800F081F86E1C28466168D7
:101F600000F07CF83046A16800F078F8244800685A
:101F700000281FD02448234C006821790002014327
:101F8000322001F0A7FE2046FEF7E0F80102E078DB
:101F9000090A00060143332001F09CFE1B48FEF7AE
:101FA000D5F801021948090AC07800060143342017
:101FB00001F090FE16487F240068E405002801D057
:101FC000214600E00021362000F048F81148006862
:101FD000002801D0214600E00021372000F03EF823
:101FE0000349FF2001F076FE00F024F8F8BD000060
:101FF0000100AA125C000020D8000020700500201B
:102000006801002048010020EC0000202801002089
:10201000E4010020E801002010B50548FEF7E2FACF
:10202000042803D0FEF70EFB012010BD002010BDD8
:10203000007C000810B5FEF705FB10BD02498000CA
:102040004018006870470000007C000800B5FFF7EA
:10205000F5FF00BD10B5FEF723FB10BD10B501F074
:1020600039FE10BD30B53F4C2178814277D0062132
:102070006218203AD27F6254491E0129F8DA207092
:1020800039493848FFF736F87F25002802D06570B7
:10209000032030BD34493348C91DFFF72BF8002811
:1020A00002D06570042030BD2F492E480E31FFF755
:1020B00021F8002802D06570012030BD2A49294846
:1020C0001531FFF717F8002802D06570022030BDE7
:1020D00025492448C91FFFF70DF8002802D0657074
:1020E000092030BD20491F480E39FFF703F80028AA
:1020F00002D065700A2030BD1B491A481539FEF719
:10210000F9FF002802D065700B2030BD1649154834
:102110001C31FEF7EFFF002802D06570052030BDAE
:10212000114910482331FEF7E5FF002802D0657001
:10213000062030BD0C490B482A31FEF7DBFF002892
:1021400002D06570072030BD074906483131FEF7DF
:10215000D1FF002803D06570082030BDFFE70020C4
:10216000FBE70000A0010020DF3D0008F8B500F00B
:102170008FF8040072D001253C4E012C1ED130682E
:10218000002834D03A48056000203060FFF7BEFEDA
:10219000FFF722FE002002460C2703467B43354F03
:1021A0000021DB198F00491CDA510329FADB401C9E
:1021B0000328F1DB00F0EEF82F49086002212F4FD1
:1021C0000B2C19D0022C1ED00A2C28D02C48042C01
:1021D0002DD0032C2FD0072C00DB3560052C2FD001
:1021E000062C30D0072C3AD0082C3BD02EE000F043
:1021F000F1F8FEF759FDC9E7224A11E01060081A0C
:1022000038603560E9E7204A1068002805D00020D2
:102210001060081A386035601BE00120F8E71B4A9F
:102220001068002801D00020E8E70120E6E70571EA
:102230000F4805600AE00E490D600021017105E0BC
:1022400000F0FEFE01E000F0EDFE3860306800288E
:1022500004D03868002801D105480560F8BD00F0B9
:102260004FFBF2E7FFF716FDEFE700003402002016
:10227000C0010020A0020020DC010020C4010020D9
:1022800040040020E801002068010020E401002053
:1022900070B53748374C0068002864D0364B374853
:1022A0001A685100490881420BDA9D686D006D087B
:1022B000854206DA5D686D006D08854201DA00200E
:1022C0002FE02F4DAA4202D89E68AE4206D95E6822
:1022D00076007608864201DA012022E0294EB242D9
:1022E00002DC9A68B24206DD5A6852005208824205
:1022F00001DA022015E05A68AA4208D9814206DABA
:102300009D686D006D08854201DA032009E0B24244
:1023100008DD814206DA996849004908814201DAFC
:102320000420206000F036F806CC083C914200D032
:10233000E060E268801A144A90420FD9002904D163
:10234000124A904201D90C2005E0114A904204D96A
:102350007F2903D0FF20A06000E0A1606160A06839
:10236000FFF780FE70BD7F20A0606060002070BD20
:102370006C0100209001002010050020CDCC4C3EC7
:10238000333333BF3333333FA086010060AE0A00DE
:1023900020A1070000B501F071FC00BD1CB5232091
:1023A00001214004FEF77AFA0120694608710020F5
:1023B0008871C8710320487104200924E406009044
:1023C0002046FEF78EF90821009169462046FEF767
:1023D00088F91CBDF0B591B0FFF7DCFF0F90054602
:1023E0000B900A9000208100574B0CAA5B58401CB0
:1023F00053500328F7DB8CE00A980A95281A0990B5
:1024000001D10120099006226946432000F09EF97F
:10241000009801990002401800B2FDF791FF079063
:10242000029803990002401800B2FDF789FF069058
:10243000049805990002401800B2FDF781FF434E51
:102440000890307800F06EFA20464149FDF768FEAA
:102450004048814201D9012100E000213068C207D3
:10246000D20F914201D0401C3060384801780907F2
:10247000090F00260160B4000CAF06A839590059B5
:10248000FDF794FF04D238593349FDF779FE3851EE
:1024900006A839590059FDF77FFF04D238592E4953
:1024A000FDF7BFFE3851E0192C4900F0B3FA385956
:1024B0002B4940004008FDF763FE014606AF38593E
:1024C00040004008FDF772FF06D2FFF763FF0B9054
:1024D0001E48012101600BE00998FDF73CFF2149EE
:1024E00000F0E8FA024618483959201800F0A5FA19
:1024F000761C032EBFDB7D24E400FFF74BFF401B5F
:10250000A04203D20A20FFF7CAFBF6E7FFF742FF1B
:1025100005460B982C1A1448844205D20F9813498B
:10252000281A884200D267E70B98291A0E48814280
:1025300007D20020044A01468300401CD1500328E2
:10254000FADB11B0F0BD00007C0500203002002055
:1025500024F40000127A0000CDCCCC3D00004844A9
:102560000000C8420024F44880841E00C0E1E4005A
:1025700010B58AB002206946087101208871C871BF
:10258000032040020924E40600902046FEF7A9F843
:10259000042209212046FEF7DCF804220A21204605
:1025A000FEF7D7F801214805FEF784F90121084616
:1025B000FEF78CF901218805FEF7A0F90121C80575
:1025C000FEF79CF91020FEF78DF90B4802900020D1
:1025D0000F2104910390AB21084C059007900691C0
:1025E000089002A92046FEF7E7F801212046FEF7F1
:1025F000C7F80AB010BD0000180870000054004071
:10260000F8B50F461646012100F03AF8092080027D
:1026100001230090F2B25B06D0211248FEF704F9C4
:10262000114D0020287018E0002408E0641C600BA5
:1026300005D00E490868401C08600020F8BD042140
:102640000848FEF7B1F80028F0D00648FEF7E6F893
:1026500029788A00B850491C29702878B042E3DBF9
:102660000120F8BD005400402C020020E4000020AE
:1026700008B501226946FFF7C3FF009808BD0000B6
:10268000F3B581B00F4600241A4D1B4E02E0641CC6
:10269000600B22D10121C9033046FEF785F80128DD
:1026A000F5D0012040030090FAB20023D02130463B
:1026B000FEF7BAF802E0641C600B0ED1022130462E
:1026C000FEF772F80028F6D00198C1B23046FEF746
:1026D000A8F807E0641C600B04D02868401C286040
:1026E0000020FEBD01213046FEF75EF80028F1D043
:1026F0000120FEBDE40000200054004070B50D46EE
:1027000000240221FFF7BCFFE9B20C4D2846FEF77A
:1027100088F807E0641C600B04D009490868401C75
:10272000086070BD40212846FEF73EF80028F1D031
:1027300001212846FEF72EF870BD0000005400402D
:10274000E400002010B5FFF713FF10BD10B5FFF730
:1027500057FF10BD10B5FFF78BFF10BD10B5FFF789
:10276000CDFF10BDF0B54C4C4C4D87B021682868AA
:10277000FDF757FD286061686868FDF752FD6860E5
:10278000A168A868FDF74DFD00240A27FF43A86053
:10279000A600A8593946FDF7C7FD641CA851032CB3
:1027A000F6DB3F480024006804AF00903D48A600D7
:1027B00080590099FDF73DFD641CB851032CF5DBF1
:1027C000394E049834682146FDF733FDB168FDF7B2
:1027D0002CFD019001990498FDF72BFD2146FDF792
:1027E000CFFC074601990598FDF723FD7168FDF7B9
:1027F000C7FC044621460598FDF71BFD0199FDF72E
:1028000014FDB06021460698FDF713FD3946FDF72B
:102810000CFD3060069A01461046FDF70AFD214680
:10282000FDF7AEFC70601D48FEF708FC1F49204A0A
:102830004118914222D27F22D2050146002410463F
:10284000FDF734FD0090A700E959FDF7F2FC641C88
:10285000E851032C01DA0098F5E711483F210906F9
:10286000006800F039F907460024A00029588019B3
:102870003A4600F0E2F8641C032CF6DBB1683068DD
:10288000FEF73EFB0B4C2060B1687068FEF738FB2A
:10289000606007B0F0BD0000700500205805002002
:1028A000D80100206405002020020020CCCCCCC040
:1028B000323373004C050020F8B500250D4F01F0B0
:1028C0001DF80024A6000A21B859C943FDF72CFDC4
:1028D00001460948094A301800F0AFF8641C032C7F
:1028E000F0DB7D20C000FFF7DAF96D1C642DE6DB1C
:1028F000F8BD000058050020200200209A99593F99
:1029000010B50120FEF7B4FB10BD0EB500226B46DA
:102910001A805A8001911A819A726946FEF72AF943
:102920000EBD000070B50646FFF734FD194C216955
:102930002061451A3046FDF70EFD1749FDF779FC79
:1029400006460121204689070C3000F063F828462E
:10295000FDF701FD054630466168FDF762FC29463A
:10296000FDF767FC0D49FDF764FCE168FDF708FC25
:102970000B49E060884205DDFF2000F039F87F2038
:10298000C00503E0FF2000F021F800206060002077
:1029900070BD0000000000208988883D6F12833AD6
:1029A00048E1FA3E70B50D460446FFF7F3FC2146B8
:1029B000FDF7B6FB6C432009814203D90F2000F0DC
:1029C00017F870BD0F2000F001F870BD70B5044617
:1029D000064DC00703D004212846FDF7CCFEA00712
:1029E00003D508212846FDF7C6FE70BD000000484B
:1029F00070B50446064DC00703D004212846FDF7F4
:102A0000B8FEA00703D508212846FDF7B2FE70BD29
:102A10000000004870B504460120C0070D4645403F
:102A20000E462068FDF7C2FC00D2266028462168C9
:102A3000FDF7BCFC00D2256070BD70B505460C46A4
:102A40007F2016461146C005FDF7EBFB2146FDF73A
:102A5000F0FB044631462868FDF7EBFB2146FDF705
:102A60008FFB286070BD0000F3B5104E104F8C0036
:102A700083B031597869FDF7DCFB019030460C38A2
:102A8000055938692946FDF7D4FB0090B9690398C8
:102A9000FDF7CFFB0099FDF773FB0199FDF7C1FB33
:102AA000314635510C39085105B0F0BD3C030020CA
:102AB0007000002010B5FDF7F9FB7F24E4052146E6
:102AC000FDF7B3FBA04201DD204610BD0121C9077F
:102AD0008842FAD9002010BD10B5FDF7AAFB7F246B
:102AE000E4052146FDF7A1FBA04201DD204610BD13
:102AF0000121C9078842FAD9002010BDF8B5164A4D
:102B000009018C1805462768A1686068FDF738FB45
:102B10000090E168FDF734FB01467F20C005FDF71A
:102B2000C5FB0099FDF785FB064639462846FDF7AB
:102B300078FB3146FDF77DFB3946FDF721FB054665
:102B40007F203146C005FDF76CFB0099FDF771FB56
:102B5000256060602846F8BDAC050020F8B5164A2F
:102B600009018C1805462768A1686068FDF708FB15
:102B70000090E168FDF704FB01467F20C005FDF7EA
:102B800095FB0099FDF755FB064639462846FDF7AB
:102B900048FB3146FDF74DFB3946FDF7F1FA054696
:102BA0007F203146C005FDF73CFB0099FDF741FB56
:102BB000256060602846F8BDDC0500200EB57D204C
:102BC000C000FFF76CF8FEF79DFBFFF7E7FBFF2067
:102BD000FFF70EFF00F014FF01F03AF8E148FFF7AD
:102BE0005EF8FFF7AFFD00F0FFFB0021084600F0A4
:102BF00075FC0021012000F071FC0021032000F091
:102C00006DFC0021022000F069FC00F04BFE00F09A
:102C100039FE002836D0FEF779F8D34901208873B1
:102C2000FFF7D2F8FFF7D8F800F008FDCF4E0024E8
:102C30000020FEF7E1F8B168FDF7FBFA0546012038
:102C4000FEF7DAF80146CA4FC8483A460830FFF79F
:102C5000F4FE3A462946C548FFF7EFFEC548641C16
:102C60008442E5DBC44D3068062400902046FDF721
:102C700067FB074601460098FDF718FBA84203DDF5
:102C8000776104E0042037E0641E002CEEDC7169FB
:102C90000098FDF70BFBB949884201DA02202BE0CE
:102CA000FFF798FB00F076FCFFF706FEB4480068DB
:102CB000002801D007201FE0FFF76CFB7063FFF7CF
:102CC00069FBAA4C0546606B281AFDF744FB20639C
:102CD000002802DC7F20C0052063AA49FDF7A9FA7D
:102CE000A9492063884201DD062005E0A448656308
:102CF0000068142802DD0820FEF7DCFF00F0FEFD6E
:102D0000FEF704FBFFF72EFD0020FEF775F8974C49
:102D1000A168FDF78EFA06460120FEF76DF8014620
:102D2000934F20463A460830FFF787FE97483A46C9
:102D3000016820460C30FFF780FE95496069FDF779
:102D400078FA0190934A01A82168FFF776FE3A4687
:102D500031462046FFF771FE0121C9430198FDF776
:102D6000E3FA06468C492068FDF763FA3146FDF721
:102D700058FA0090E4688948844256DD7B4F786AAF
:102D80000646FDF7DDFA8549FDF753FA2146FDF7C2
:102D900050FA0099FDF7F4F97349B4007031085105
:102DA0000646F86A002808D0002030398200401C0E
:102DB0008E500C28FADB0020F8626B4878491030FE
:102DC0000059FDF736FA684F0290403739593046BE
:102DD000FDF727FA0299FDF7D3F939463E5130390C
:102DE00008510146FDF725FA3E4601466036A01916
:102DF0006C4AFFF722FE5D485C49406A401C48620D
:102E00000C2812DB00204862306800240290A700E2
:102E1000F0590299FDF7C0FA04D2F05902905348D4
:102E2000611C8162641C0C2CF1DB504F3869002856
:102E300000D05A485C49FDF7A3F90646B86AFDF789
:102E40007FFA564C2146FDF7F4F9F968FDF7F1F9E0
:102E50000099FDF795F93146FDF79EFA03D35349E2
:102E60003868884201DA012000E000203861B86A41
:102E7000FDF766FA2146FDF7DCF9F968FDF7D9F9A7
:102E80000099FDF77DF9786049480068002801D075
:102E9000FFF76CF93869002801D0082108E045489F
:102EA0000068002806D044480068002804D00F219C
:102EB00042481EE00C211BE02B488079002807D0F7
:102EC0000026B869002817D0386A002802D004E02C
:102ED0000126F6E7FFF75EFA3862FFF75BFA396A18
:102EE000411A3648814202D90020B861386208216F
:102EF0001C48FFF757FD2BE0F86900281FD0FFF7AB
:102F000049FA0446386A002809D13C62002E03D0F1
:102F1000FF20FFF75BFD02E0FF20FFF769FD386A45
:102F2000211A2648814201D8386A04E0F869401E17
:102F3000F861002038622249201A884208D9002E00
:102F400003D0FF20FFF754FD02E0FF20FFF73EFD16
:102F5000FEF7E2F87D24E400FFF71CFA401BA042D4
:102F6000FAD3ACE6A086010040040020A8010020AE
:102F7000492E7F3F88130000CDCC6C403333534043
:102F8000E4000020BD3786350AD7A33C8C01002021
:102F90006666864029EA7F3F0000A03FCDCCCC3D4D
:102FA00042F27C3F67B17F3F00006040CDCC2C40B7
:102FB0006C010020F40000201401002020A1070073
:102FC000E0930400FFB581B007460E4610460A9D07
:102FD000FDF727F9044628460499FDF722F905462E
:102FE00031463846FDF71DF92946FDF722F92146FD
:102FF000FDF75CF90499FDF7C3F805B0F0BD0000DA
:1030000010B506490868002807D000200860091D8F
:1030100008710920C006FDF764FB10BD0002002006
:103020007047000005490868022804D001DA022030
:103030000860401C70470020FAE700007000002084
:103040000C494868002804D0012807D002280AD17A
:103050000BE0084844308860012003E00548503008
:10306000886002204860401C704702483830886001
:103070000020F7E77000002010B50649087C401CCE
:103080008007800F08614031095C252000F078FE40
:1030900010BD0000E800002010B5416800788007EE
:1030A000800DFF38FF3802380818FDF749F908216C
:1030B000C943FDF739F910BDF0B506469E489F4952
:1030C000C2789F489F4F0068B4008FB0002A03D099
:1030D000994A127A002A11D0002803D03859FDF7F6
:1030E000A8F83851022E1ADA964918310859C20741
:1030F000401CD20F0851002A07D010E00028EDD163
:10310000914800680028E9D0ECE78E483146483005
:10311000005900F0DFFC01468A480C3001518B4811
:103120000025015987483C300059FDF735F904D195
:1031300087480059002800DD0125844801210059F5
:10314000C90748407F493C310959FDF725F906D1A7
:103150007F4801590120C007814200D90125022E74
:103160000BDA78480C3001593C300059FDF759F81A
:10317000400078494008884227DC002D25D171485D
:103180000221543005592846FDF7CEF86D496031CB
:103190000959FCF7F5FF6E4909590091FCF7F0FF5A
:1031A0006D49FDF746F86D490959FDF742F86C493C
:1031B0000968FDF73EF83959FCF7E2FF38516148DC
:1031C000603005510C380099015160480C300159AC
:1031D0005C482018FFF71EFC6048183007595C480F
:1031E00039460059FDF725F85C490C390959009119
:1031F000FDF71FF8534D7F2101903C35C905384636
:10320000FDF70FF80099FDF714F856490959039195
:10321000FDF70FF80199FCF7B3FF4A490959FCF78C
:10322000AFFF28514D480C3000590290002801DCB6
:10323000285972E040480AA9827807A8002A06D0D7
:10324000464A243A12590251444A183A05E03D4A86
:10325000603A125902513B4A543A12590A510059E4
:103260007F22D2050090904208590190014604AF98
:10327000104608DAFCF7D5FF0D903B48019900593C
:10328000400040080BE0FCF7CCFF0D90009901983E
:10329000FDF70CF801463448005940004008FCF79F
:1032A000C8FF0D99FCF76CFF3851264824300159AE
:1032B0000398FCF7B6FF0299FCF7BBFF2749443996
:1032C000C9690D91FCF7B5FF0E901E4830300159C9
:1032D0001830025901921046FCF7A3FF0299FCF73F
:1032E000A8FF0099FCF7A5FF3959FCF7A2FF0D993B
:1032F000FCF79FFF0E99FCF794FF1249019A3031B9
:103300000A51104A0399243211513146FFF7ACFBA0
:1033100001462859FCF734FF285110494439C9683F
:10332000FCF787FF2851094801596019FFF772FB24
:1033300028590FB0F0BD00004004002048E17A3F5A
:103340006C010020C4020020EC010020A43D000814
:10335000C4030020CDCCCC3D7EAA2A3EB400002080
:10336000D801002064050020D0030020F8B51448DF
:1033700001681448FCF79AFF134CE0611348016898
:1033800013480068FCF792FF7F25124EED05334687
:10339000114A12490095FFF715FEE060B04201DDC9
:1033A000E66002E0A84200DAE5600D48C078002837
:1033B00004D00C49E068FCF73CFFE060F8BD000079
:1033C000D801002017B7513B70000020BC0100203D
:1033D000A8010020713DAA3F6666764000002040AB
:1033E000400400206666663FFEB5022569460D7101
:1033F0000320487100248C71CC7101212846FDF70F
:1034000059FA314F31483946FFF77FFA01210E0250
:103410003046FDF74FFA39462D4F3846FFF775FA1B
:103420002C486021018001214180848106828460D2
:1034300010200924E406009069462046FDF751F962
:10344000042211462046FDF784F922493846FDF74B
:10345000D9FA4020009069462046FDF742F9012242
:1034600006212046FDF775F91A491848FDF7CAFAF2
:103470008020009069462046FDF733F9012207219C
:103480002046FDF766F913491048FDF7F9FA124C8A
:10349000694620460095FDF724F901221146204691
:1034A000FDF757F90B490948FDF732FB01210748A1
:1034B000FDF792FA01210548FDF798FA01213846F7
:1034C000FDF78AFAFEBD0000CF07000000040040AF
:1034D00000200040880500200004004810B50A467E
:1034E000044612491046FCF7A4FEFCF73BFF0028F7
:1034F00001DA002003E00E49884200DD0846002C76
:1035000009D0012C0CD00B49022C0CD0032C01D17A
:1035100080B2886310BD074980B24031086010BD99
:1035200080B2054900E080B2486310BD00E0F94474
:10353000CF0700000004004000200040F8B5064618
:103540007F20C0050C46814201DD044603E010499E
:103550008C4200D90C4621460746FCF762FE3146F4
:10356000FCF767FE054631460846FCF762FE314629
:10357000FCF75FFE2146FCF75CFE2946FCF700FEE7
:10358000009039466846FFF745FA0098F8BD0000FC
:10359000000080BF70470000FEB5254D254C2F6808
:1035A000A66839463046FCF744FE23490968009175
:1035B000FCF73FFE6168FCF738FE39460190FCF7E6
:1035C00038FE0099FCF735FE3146FCF7D9FD074679
:1035D00068680290266801463046FCF72AFE00998A
:1035E000FCF727FE3946FCF720FEA0600299FCF7A5
:1035F00020FE0099FCF71DFE3146FCF7C1FDAD68C9
:10360000064629460198FCF714FE0099FCF711FEC6
:103610003146FCF70AFE29462060FCF70AFE0099B5
:10362000FCF707FE0199FCF7ABFD6060FEBD0000F2
:1036300064050020C4020020D80100207CB5434866
:10364000012585730021C1730221414800F030FB40
:103650003F480721773000F02BFB3D4806216530BD
:1036600000F026FB3A480421383000F021FB6420AA
:10367000FEF715FB364806216B3000F019FB0021E0
:10368000012000F07DFB0121022000F079FB3921AF
:10369000062000F075FB0F21112000F071FB0021C6
:1036A000042000F06DFB0321084600F069FBE220D6
:1036B00000F020FB0021052000F062FB38211D20D6
:1036C00000F05EFB00F096F9FD2000F0D7F9002035
:1036D00000F0D4F900F088F98F21002000F050FBB1
:1036E0000F2000F028FBC62802D00320FEF7E2FAE4
:1036F000174CA068002827D016486A4603C80191D5
:1037000000900120214660310B18203BDB7F1354D1
:10371000401C0628F8DB0621104600F0C9FA3020CC
:10372000694608700621684600F0C2FA0848216917
:103730004030415C252000F023FBE56060680028F4
:1037400001D0054860627CBD25627CBD400400203C
:10375000E8000020BC3D00088813000070B590B060
:1037600000206C4681006050401C0F28FADB852049
:1037700000902248224D066822480196294600689A
:10378000FCF757FDFCF7EEFD0104C0B2090E0490F2
:1037900003911D4829460068FCF74BFDFCF7E2FD4C
:1037A0000104090EC0B2194D05910690A86CC10F15
:1037B00008184010FF2800DDFF200790002E03D0DE
:1037C0000398082108430390002108468200A2586C
:1037D000401C51180E28F9DBE1200E9100F08AFA06
:1037E0008221002000F0CCFA0F21684600F0B4FAE4
:1037F000FEF7D0FDE86410B070BD0000B8010020F5
:103800000000C842A8010020AC010020E800002010
:103810001B48016801221143016001688907FCD53A
:10382000416889088900416041680907890FFBD117
:103830000168012212069143016001688901FCD4EC
:1038400041683F231B049943416041687B23DB03AC
:103850009943416041680723DB04194341600168D3
:103860001143016001688901FCD5416802221143BE
:10387000416041680907890F0229FAD170470000A9
:103880000010024010B57520FEF764FF682807D0CD
:10389000982805D07D2803D0722801D0002010BDC3
:1038A000012010BD10B580216B20FEF757FF124894
:1038B000FEF7F5F901216B20FEF750FF7520FEF7AA
:1038C00049FF682801D0012400E000246420FEF7AD
:1038D000E6F918211C20FEF741FF002C03D005213A
:1038E0001D20FEF73BFF18211B20FEF737FF0021AC
:1038F0001A20FEF733FF10BD409C0000F0B593B0D6
:103900000E2269463B20FEF721FF02980399000230
:10391000401800B2FCF714FD304C2060009801996B
:103920000002401800B24042FCF70AFD60600498B3
:1039300005990002401800B2FCF702FDA06008984B
:1039400009990002401800B2FCF7FAFC11900A989D
:103950000B990002401800B2FCF7F2FC10900C9892
:103960000D990002401800B2FCF7EAFC12902434D2
:1039700021681098FCF755FC109061681198FCF7CD
:1039800050FC1190A1681298FCF74BFC129001209A
:10399000109AC0071199424010911146414011916F
:1039A00012990E4F4140002410AE0C371291A50021
:1039B00070590B49FCF73DFC0A49FCF73AFC705181
:1039C0002146FFF79BF878512146FFF7C7F8641CA2
:1039D0007851032CEBDB13B0F0BD0000580500203C
:1039E00000007A3D35FA8E3C01490120886170471C
:1039F0000014004801490120088170472014004844
:103A0000FEB501246846047100258571C471032642
:103A1000467102200B4F009069463846FCF761FE64
:103A2000694638460094FCF75CFE0748046005715F
:103A30008571C471467101460920C006FCF751FE2C
:103A4000BC61FEBD001400480402002070B40020D8
:103A500007210223074C0925074EED06A36142000A
:103A6000288A3381C007C00F1043491EF6D570BCA9
:103A7000704700000014004820140048F8B50446C0
:103A80000F4809260168F6060125002906D10560C0
:103A90000C48057101463046FCF723FE07210A4B0E
:103AA0000A4F022022460A41D20701D0B56100E048
:103AB0001D81B861064A1081491EF3D5F8BD00008A
:103AC00000020020040200202000004800140048EA
:103AD0002014004870B50C4AC9008C18054660686F
:103AE0000A492060FCF7A5FB064609492846FCF771
:103AF000A0FB3146FCF744FB60602268014610469B
:103B0000FCF73EFB70BD00000C06002007715D3F16
:103B1000E23B8A3DF8B5474D044601682868FCF74A
:103B20003BFC04D161686868FCF736FC55D020681E
:103B300028606068404E686031466068FCF779FB39
:103B40003E4F3946FCF775FB054631462068FCF7C9
:103B500070FB3946FCF76DFB0646FEF7D7F8354C8F
:103B6000083420602846FEF7D1F860602846FEF74A
:103B7000C3F805463046FEF7BFF82946FCF759FB67
:103B80000646A06060680146FCF753FB05462068C6
:103B90000146FCF74EFB2946FCF7F2FA2849054698
:103BA00088420FDD31460846FCF743FB7F21C905FB
:103BB000FCF73BFB01462846FCF778FBFCF744FE8C
:103BC000054600E01F4D20682946FCF732FB2060C7
:103BD00029466068FCF72DFB6060164C1A4E0834CD
:103BE000A068009070680099FCF723FBB768054651
:103BF00061683846FCF71DFB2946FCF712FB134DA4
:103C0000686030680099FCF714FB06463846216866
:103C1000FCF70FFB3146FCF704FB7F24E40528602A
:103C200021462846FEF7F6FE2146281DFEF7F2FE45
:103C3000F8BD00000C0200200000824235FA8E3CE4
:103C40006F12833AF4FD343F20020020400500202B
:103C500010B50848064941610749CA6903231202A1
:103C6000120A44042243CA6100218161036110BD2C
:103C7000FF117A0000E000E004ED00E00A4843692B
:103C800080690A494A68904201D2121A01E01B1A5F
:103C90009A18486008681218D008C300D21A0A603F
:103CA0008A6810188860704700E000E06400002017
:103CB00070B50D460646FFF79DFE002404E0305D1A
:103CC000FFF7DCFE641CE4B2AC42F8D3FFF78CFED5
:103CD00070BD0000064A10B580008018FCF7BAFCE1
:103CE000042804D0FCF7AEFC0520FDF7E3FF10BD6F
:103CF000007C000810B50446FFF77CFE2046FFF765
:103D0000BDFEFFF771FE002010BD70B50D460646E2
:103D10000024FFF76FFE6120FFF7B0FEFFF770F998
:103D200004E0FFF793FEA1007050641CAC42F8DB86
:103D3000FFF75AFE70BD10B5C406E40EFFF75AFE39
:103D40002046FFF79BFEFFF75BF9FFF77FFE044677
:103D5000FFF74AFE204610BD70B50D46064600240A
:103D6000FFF748FEA020FFF789FE04E0A0003058CE
:103D7000FFF784FE641CAC42F8DBFFF735FE70BD34
:103D800070B58406A40E20200D460443FFF732FED2
:103D90002046FFF773FE2846FFF770FEFFF724FE6C
:103DA00070BD00009A99D93F9A99D93F0000003F11
:103DB0009A99D93F9A99D93F0000003F2A00000004
:103DC000000000002A00000000000C0300040003B3
:103DD000000C0100010001000C0200020002000CB6
:103DE0000100010003000C0200020003000C0300AC
:103DF000030003000C0400040004000C0400030092
:103E000004000C0400030003000C04000300020083
:103E10000C040003000100003C3E000800000020EC
:103E20006402000068040008EC3E00086402002000
:103E3000C4070000500C000829CEFFFF01166320C4
:103E4000416340405AA0080130031820C11AA81D40
:103E500021600F803F9ED8893F2173943E52215AA2
:103E60003E4BC03F042F803F9A99993E04412DF666
:103E7000285C3E0458086666863F3333B3243EC050
:103E80003FA4703D043808CDCC0C3F7B146E042D4C
:103E90006666663F601AB4043AC06821032239019D
:103EA0000312B80B05293EF6375D50083F0A6D67CF
:103EB0009C462A490660083A4521EF2C5A5029832E
:103EC000A987052CCDCCCC3D19FC22401A80F8697D
:103ED00048490C0110A9640921F791A0097B1452EB
:0C3EE0004185EB4141A96009146C0124EC
:04000005080000C926
:00000001FF
